{
	"contracts/Airdrop_merkle.sol": {
		"Airdrop_merkle": {
			"abi": [
				{
					"inputs": [
						{
							"internalType": "address",
							"name": "t",
							"type": "address"
						},
						{
							"internalType": "bytes32",
							"name": "r",
							"type": "bytes32"
						}
					],
					"stateMutability": "nonpayable",
					"type": "constructor"
				},
				{
					"anonymous": false,
					"inputs": [
						{
							"indexed": true,
							"internalType": "address",
							"name": "claimer",
							"type": "address"
						}
					],
					"name": "Claim",
					"type": "event"
				},
				{
					"inputs": [
						{
							"internalType": "address",
							"name": "claimer",
							"type": "address"
						},
						{
							"internalType": "bytes32[]",
							"name": "mp",
							"type": "bytes32[]"
						}
					],
					"name": "canClaim",
					"outputs": [
						{
							"internalType": "bool",
							"name": "",
							"type": "bool"
						}
					],
					"stateMutability": "view",
					"type": "function"
				},
				{
					"inputs": [
						{
							"internalType": "bytes32[]",
							"name": "mp",
							"type": "bytes32[]"
						}
					],
					"name": "claim",
					"outputs": [],
					"stateMutability": "nonpayable",
					"type": "function"
				},
				{
					"inputs": [
						{
							"internalType": "address",
							"name": "",
							"type": "address"
						}
					],
					"name": "claimed",
					"outputs": [
						{
							"internalType": "bool",
							"name": "",
							"type": "bool"
						}
					],
					"stateMutability": "view",
					"type": "function"
				},
				{
					"inputs": [],
					"name": "token",
					"outputs": [
						{
							"internalType": "address",
							"name": "",
							"type": "address"
						}
					],
					"stateMutability": "view",
					"type": "function"
				},
				{
					"inputs": [],
					"name": "tree",
					"outputs": [
						{
							"internalType": "bytes32",
							"name": "",
							"type": "bytes32"
						}
					],
					"stateMutability": "view",
					"type": "function"
				}
			],
			"devdoc": {
				"kind": "dev",
				"methods": {},
				"version": 1
			},
			"evm": {
				"assembly": "    /* \"contracts/Airdrop_merkle.sol\":277:1429  contract Airdrop_merkle {\r... */\n  mstore(0x40, 0xc0)\n    /* \"contracts/Airdrop_merkle.sol\":516:597  constructor(address t, bytes32 r) {\r... */\n  callvalue\n  dup1\n  iszero\n  tag_1\n  jumpi\n  0x00\n  dup1\n  revert\ntag_1:\n  pop\n  mload(0x40)\n  sub(codesize, bytecodeSize)\n  dup1\n  bytecodeSize\n  dup4\n  codecopy\n  dup2\n  dup2\n  add\n  0x40\n  mstore\n  dup2\n  add\n  swap1\n  tag_2\n  swap2\n  swap1\n  tag_3\n  jump\t// in\ntag_2:\n    /* \"contracts/Airdrop_merkle.sol\":569:570  t */\n  dup2\n    /* \"contracts/Airdrop_merkle.sol\":561:570  token = t */\n  0xffffffffffffffffffffffffffffffffffffffff\n  and\n  0xa0\n  dup2\n  0xffffffffffffffffffffffffffffffffffffffff\n  and\n  0x60\n  shl\n  dup2\n  mstore\n  pop\n  pop\n    /* \"contracts/Airdrop_merkle.sol\":588:589  r */\n  dup1\n    /* \"contracts/Airdrop_merkle.sol\":581:589  tree = r */\n  0x80\n  dup2\n  dup2\n  mstore\n  pop\n  pop\n    /* \"contracts/Airdrop_merkle.sol\":516:597  constructor(address t, bytes32 r) {\r... */\n  pop\n  pop\n    /* \"contracts/Airdrop_merkle.sol\":277:1429  contract Airdrop_merkle {\r... */\n  jump(tag_6)\n    /* \"#utility.yul\":7:150   */\ntag_8:\n    /* \"#utility.yul\":64:69   */\n  0x00\n    /* \"#utility.yul\":95:101   */\n  dup2\n    /* \"#utility.yul\":89:102   */\n  mload\n    /* \"#utility.yul\":80:102   */\n  swap1\n  pop\n    /* \"#utility.yul\":111:144   */\n  tag_10\n    /* \"#utility.yul\":138:143   */\n  dup2\n    /* \"#utility.yul\":111:144   */\n  tag_11\n  jump\t// in\ntag_10:\n    /* \"#utility.yul\":7:150   */\n  swap3\n  swap2\n  pop\n  pop\n  jump\t// out\n    /* \"#utility.yul\":156:299   */\ntag_12:\n    /* \"#utility.yul\":213:218   */\n  0x00\n    /* \"#utility.yul\":244:250   */\n  dup2\n    /* \"#utility.yul\":238:251   */\n  mload\n    /* \"#utility.yul\":229:251   */\n  swap1\n  pop\n    /* \"#utility.yul\":260:293   */\n  tag_14\n    /* \"#utility.yul\":287:292   */\n  dup2\n    /* \"#utility.yul\":260:293   */\n  tag_15\n  jump\t// in\ntag_14:\n    /* \"#utility.yul\":156:299   */\n  swap3\n  swap2\n  pop\n  pop\n  jump\t// out\n    /* \"#utility.yul\":305:812   */\ntag_3:\n    /* \"#utility.yul\":384:390   */\n  0x00\n    /* \"#utility.yul\":392:398   */\n  dup1\n    /* \"#utility.yul\":441:443   */\n  0x40\n    /* \"#utility.yul\":429:438   */\n  dup4\n    /* \"#utility.yul\":420:427   */\n  dup6\n    /* \"#utility.yul\":416:439   */\n  sub\n    /* \"#utility.yul\":412:444   */\n  slt\n    /* \"#utility.yul\":409:528   */\n  iszero\n  tag_17\n  jumpi\n    /* \"#utility.yul\":447:526   */\n  tag_18\n  tag_19\n  jump\t// in\ntag_18:\n    /* \"#utility.yul\":409:528   */\ntag_17:\n    /* \"#utility.yul\":567:568   */\n  0x00\n    /* \"#utility.yul\":592:656   */\n  tag_20\n    /* \"#utility.yul\":648:655   */\n  dup6\n    /* \"#utility.yul\":639:645   */\n  dup3\n    /* \"#utility.yul\":628:637   */\n  dup7\n    /* \"#utility.yul\":624:646   */\n  add\n    /* \"#utility.yul\":592:656   */\n  tag_8\n  jump\t// in\ntag_20:\n    /* \"#utility.yul\":582:656   */\n  swap3\n  pop\n    /* \"#utility.yul\":538:666   */\n  pop\n    /* \"#utility.yul\":705:707   */\n  0x20\n    /* \"#utility.yul\":731:795   */\n  tag_21\n    /* \"#utility.yul\":787:794   */\n  dup6\n    /* \"#utility.yul\":778:784   */\n  dup3\n    /* \"#utility.yul\":767:776   */\n  dup7\n    /* \"#utility.yul\":763:785   */\n  add\n    /* \"#utility.yul\":731:795   */\n  tag_12\n  jump\t// in\ntag_21:\n    /* \"#utility.yul\":721:795   */\n  swap2\n  pop\n    /* \"#utility.yul\":676:805   */\n  pop\n    /* \"#utility.yul\":305:812   */\n  swap3\n  pop\n  swap3\n  swap1\n  pop\n  jump\t// out\n    /* \"#utility.yul\":899:995   */\ntag_24:\n    /* \"#utility.yul\":936:943   */\n  0x00\n    /* \"#utility.yul\":965:989   */\n  tag_26\n    /* \"#utility.yul\":983:988   */\n  dup3\n    /* \"#utility.yul\":965:989   */\n  tag_27\n  jump\t// in\ntag_26:\n    /* \"#utility.yul\":954:989   */\n  swap1\n  pop\n    /* \"#utility.yul\":899:995   */\n  swap2\n  swap1\n  pop\n  jump\t// out\n    /* \"#utility.yul\":1001:1078   */\ntag_28:\n    /* \"#utility.yul\":1038:1045   */\n  0x00\n    /* \"#utility.yul\":1067:1072   */\n  dup2\n    /* \"#utility.yul\":1056:1072   */\n  swap1\n  pop\n    /* \"#utility.yul\":1001:1078   */\n  swap2\n  swap1\n  pop\n  jump\t// out\n    /* \"#utility.yul\":1084:1210   */\ntag_27:\n    /* \"#utility.yul\":1121:1128   */\n  0x00\n    /* \"#utility.yul\":1161:1203   */\n  0xffffffffffffffffffffffffffffffffffffffff\n    /* \"#utility.yul\":1154:1159   */\n  dup3\n    /* \"#utility.yul\":1150:1204   */\n  and\n    /* \"#utility.yul\":1139:1204   */\n  swap1\n  pop\n    /* \"#utility.yul\":1084:1210   */\n  swap2\n  swap1\n  pop\n  jump\t// out\n    /* \"#utility.yul\":1339:1456   */\ntag_19:\n    /* \"#utility.yul\":1448:1449   */\n  0x00\n    /* \"#utility.yul\":1445:1446   */\n  dup1\n    /* \"#utility.yul\":1438:1450   */\n  revert\n    /* \"#utility.yul\":1462:1584   */\ntag_11:\n    /* \"#utility.yul\":1535:1559   */\n  tag_35\n    /* \"#utility.yul\":1553:1558   */\n  dup2\n    /* \"#utility.yul\":1535:1559   */\n  tag_24\n  jump\t// in\ntag_35:\n    /* \"#utility.yul\":1528:1533   */\n  dup2\n    /* \"#utility.yul\":1525:1560   */\n  eq\n    /* \"#utility.yul\":1515:1578   */\n  tag_36\n  jumpi\n    /* \"#utility.yul\":1574:1575   */\n  0x00\n    /* \"#utility.yul\":1571:1572   */\n  dup1\n    /* \"#utility.yul\":1564:1576   */\n  revert\n    /* \"#utility.yul\":1515:1578   */\ntag_36:\n    /* \"#utility.yul\":1462:1584   */\n  pop\n  jump\t// out\n    /* \"#utility.yul\":1590:1712   */\ntag_15:\n    /* \"#utility.yul\":1663:1687   */\n  tag_38\n    /* \"#utility.yul\":1681:1686   */\n  dup2\n    /* \"#utility.yul\":1663:1687   */\n  tag_28\n  jump\t// in\ntag_38:\n    /* \"#utility.yul\":1656:1661   */\n  dup2\n    /* \"#utility.yul\":1653:1688   */\n  eq\n    /* \"#utility.yul\":1643:1706   */\n  tag_39\n  jumpi\n    /* \"#utility.yul\":1702:1703   */\n  0x00\n    /* \"#utility.yul\":1699:1700   */\n  dup1\n    /* \"#utility.yul\":1692:1704   */\n  revert\n    /* \"#utility.yul\":1643:1706   */\ntag_39:\n    /* \"#utility.yul\":1590:1712   */\n  pop\n  jump\t// out\n    /* \"contracts/Airdrop_merkle.sol\":277:1429  contract Airdrop_merkle {\r... */\ntag_6:\n  mload(0x80)\n  shr(0x60, mload(0xa0))\n  codecopy(0x00, dataOffset(sub_0), dataSize(sub_0))\n  0x00\n  assignImmutable(\"0xf351411405857f824037d1f95603d55d8bcd97d02134ce4467b9a9c7b79cf9d9\")\n  0x00\n  assignImmutable(\"0xd2f7726eb1d129c4ce63d49cbf6bc48740d44f5a10e2fb1f680386f1a976123a\")\n  return(0x00, dataSize(sub_0))\nstop\n\nsub_0: assembly {\n        /* \"contracts/Airdrop_merkle.sol\":277:1429  contract Airdrop_merkle {\r... */\n      mstore(0x40, 0x80)\n      callvalue\n      dup1\n      iszero\n      tag_1\n      jumpi\n      0x00\n      dup1\n      revert\n    tag_1:\n      pop\n      jumpi(tag_2, lt(calldatasize, 0x04))\n      shr(0xe0, calldataload(0x00))\n      dup1\n      0x18894daf\n      eq\n      tag_3\n      jumpi\n      dup1\n      0xb391c508\n      eq\n      tag_4\n      jumpi\n      dup1\n      0xc884ef83\n      eq\n      tag_5\n      jumpi\n      dup1\n      0xfc0c546a\n      eq\n      tag_6\n      jumpi\n      dup1\n      0xfd54b228\n      eq\n      tag_7\n      jumpi\n    tag_2:\n      0x00\n      dup1\n      revert\n        /* \"contracts/Airdrop_merkle.sol\":776:1067  function canClaim(address claimer, bytes32[] calldata mp) public view returns(bool) {\r... */\n    tag_3:\n      tag_8\n      0x04\n      dup1\n      calldatasize\n      sub\n      dup2\n      add\n      swap1\n      tag_9\n      swap2\n      swap1\n      tag_10\n      jump\t// in\n    tag_9:\n      tag_11\n      jump\t// in\n    tag_8:\n      mload(0x40)\n      tag_12\n      swap2\n      swap1\n      tag_13\n      jump\t// in\n    tag_12:\n      mload(0x40)\n      dup1\n      swap2\n      sub\n      swap1\n      return\n        /* \"contracts/Airdrop_merkle.sol\":1075:1426  function claim(bytes32[] calldata mp) external {\r... */\n    tag_4:\n      tag_14\n      0x04\n      dup1\n      calldatasize\n      sub\n      dup2\n      add\n      swap1\n      tag_15\n      swap2\n      swap1\n      tag_16\n      jump\t// in\n    tag_15:\n      tag_17\n      jump\t// in\n    tag_14:\n      stop\n        /* \"contracts/Airdrop_merkle.sol\":649:688  mapping(address => bool) public claimed */\n    tag_5:\n      tag_18\n      0x04\n      dup1\n      calldatasize\n      sub\n      dup2\n      add\n      swap1\n      tag_19\n      swap2\n      swap1\n      tag_20\n      jump\t// in\n    tag_19:\n      tag_21\n      jump\t// in\n    tag_18:\n      mload(0x40)\n      tag_22\n      swap2\n      swap1\n      tag_13\n      jump\t// in\n    tag_22:\n      mload(0x40)\n      dup1\n      swap2\n      sub\n      swap1\n      return\n        /* \"contracts/Airdrop_merkle.sol\":477:507  address public immutable token */\n    tag_6:\n      tag_23\n      tag_24\n      jump\t// in\n    tag_23:\n      mload(0x40)\n      tag_25\n      swap2\n      swap1\n      tag_26\n      jump\t// in\n    tag_25:\n      mload(0x40)\n      dup1\n      swap2\n      sub\n      swap1\n      return\n        /* \"contracts/Airdrop_merkle.sol\":410:439  bytes32 public immutable tree */\n    tag_7:\n      tag_27\n      tag_28\n      jump\t// in\n    tag_27:\n      mload(0x40)\n      tag_29\n      swap2\n      swap1\n      tag_30\n      jump\t// in\n    tag_29:\n      mload(0x40)\n      dup1\n      swap2\n      sub\n      swap1\n      return\n        /* \"contracts/Airdrop_merkle.sol\":776:1067  function canClaim(address claimer, bytes32[] calldata mp) public view returns(bool) {\r... */\n    tag_11:\n        /* \"contracts/Airdrop_merkle.sol\":854:858  bool */\n      0x00\n        /* \"contracts/Airdrop_merkle.sol\":973:980  claimed */\n      dup1\n        /* \"contracts/Airdrop_merkle.sol\":973:989  claimed[claimer] */\n      0x00\n        /* \"contracts/Airdrop_merkle.sol\":981:988  claimer */\n      dup6\n        /* \"contracts/Airdrop_merkle.sol\":973:989  claimed[claimer] */\n      0xffffffffffffffffffffffffffffffffffffffff\n      and\n      0xffffffffffffffffffffffffffffffffffffffff\n      and\n      dup2\n      mstore\n      0x20\n      add\n      swap1\n      dup2\n      mstore\n      0x20\n      add\n      0x00\n      keccak256\n      0x00\n      swap1\n      sload\n      swap1\n      0x0100\n      exp\n      swap1\n      div\n      0xff\n      and\n        /* \"contracts/Airdrop_merkle.sol\":972:989  !claimed[claimer] */\n      iszero\n        /* \"contracts/Airdrop_merkle.sol\":972:1059  !claimed[claimer] && MerkleProof.verify(mp, tree, keccak256(abi.encodePacked(claimer))) */\n      dup1\n      iszero\n      tag_32\n      jumpi\n      pop\n        /* \"contracts/Airdrop_merkle.sol\":993:1059  MerkleProof.verify(mp, tree, keccak256(abi.encodePacked(claimer))) */\n      tag_33\n        /* \"contracts/Airdrop_merkle.sol\":1012:1014  mp */\n      dup4\n      dup4\n        /* \"contracts/Airdrop_merkle.sol\":993:1059  MerkleProof.verify(mp, tree, keccak256(abi.encodePacked(claimer))) */\n      dup1\n      dup1\n      0x20\n      mul\n      0x20\n      add\n      mload(0x40)\n      swap1\n      dup2\n      add\n      0x40\n      mstore\n      dup1\n      swap4\n      swap3\n      swap2\n      swap1\n      dup2\n      dup2\n      mstore\n      0x20\n      add\n      dup4\n      dup4\n      0x20\n      mul\n      dup1\n      dup3\n      dup5\n      calldatacopy\n      0x00\n      dup2\n      dup5\n      add\n      mstore\n      not(0x1f)\n      0x1f\n      dup3\n      add\n      and\n      swap1\n      pop\n      dup1\n      dup4\n      add\n      swap3\n      pop\n      pop\n      pop\n      pop\n      pop\n      pop\n      pop\n        /* \"contracts/Airdrop_merkle.sol\":1016:1020  tree */\n      immutable(\"0xd2f7726eb1d129c4ce63d49cbf6bc48740d44f5a10e2fb1f680386f1a976123a\")\n        /* \"contracts/Airdrop_merkle.sol\":1049:1056  claimer */\n      dup7\n        /* \"contracts/Airdrop_merkle.sol\":1032:1057  abi.encodePacked(claimer) */\n      add(0x20, mload(0x40))\n      tag_34\n      swap2\n      swap1\n      tag_35\n      jump\t// in\n    tag_34:\n      mload(0x40)\n      0x20\n      dup2\n      dup4\n      sub\n      sub\n      dup2\n      mstore\n      swap1\n      0x40\n      mstore\n        /* \"contracts/Airdrop_merkle.sol\":1022:1058  keccak256(abi.encodePacked(claimer)) */\n      dup1\n      mload\n      swap1\n      0x20\n      add\n      keccak256\n        /* \"contracts/Airdrop_merkle.sol\":993:1011  MerkleProof.verify */\n      tag_36\n        /* \"contracts/Airdrop_merkle.sol\":993:1059  MerkleProof.verify(mp, tree, keccak256(abi.encodePacked(claimer))) */\n      jump\t// in\n    tag_33:\n        /* \"contracts/Airdrop_merkle.sol\":972:1059  !claimed[claimer] && MerkleProof.verify(mp, tree, keccak256(abi.encodePacked(claimer))) */\n    tag_32:\n        /* \"contracts/Airdrop_merkle.sol\":965:1059  return !claimed[claimer] && MerkleProof.verify(mp, tree, keccak256(abi.encodePacked(claimer))) */\n      swap1\n      pop\n        /* \"contracts/Airdrop_merkle.sol\":776:1067  function canClaim(address claimer, bytes32[] calldata mp) public view returns(bool) {\r... */\n      swap4\n      swap3\n      pop\n      pop\n      pop\n      jump\t// out\n        /* \"contracts/Airdrop_merkle.sol\":1075:1426  function claim(bytes32[] calldata mp) external {\r... */\n    tag_17:\n        /* \"contracts/Airdrop_merkle.sol\":1184:1208  canClaim(msg.sender, mp) */\n      tag_38\n        /* \"contracts/Airdrop_merkle.sol\":1193:1203  msg.sender */\n      caller\n        /* \"contracts/Airdrop_merkle.sol\":1205:1207  mp */\n      dup4\n      dup4\n        /* \"contracts/Airdrop_merkle.sol\":1184:1192  canClaim */\n      tag_11\n        /* \"contracts/Airdrop_merkle.sol\":1184:1208  canClaim(msg.sender, mp) */\n      jump\t// in\n    tag_38:\n        /* \"contracts/Airdrop_merkle.sol\":1175:1224  require (canClaim(msg.sender, mp), \"claim error\") */\n      tag_39\n      jumpi\n      mload(0x40)\n      0x08c379a000000000000000000000000000000000000000000000000000000000\n      dup2\n      mstore\n      0x04\n      add\n      tag_40\n      swap1\n      tag_41\n      jump\t// in\n    tag_40:\n      mload(0x40)\n      dup1\n      swap2\n      sub\n      swap1\n      revert\n    tag_39:\n        /* \"contracts/Airdrop_merkle.sol\":1293:1297  true */\n      0x01\n        /* \"contracts/Airdrop_merkle.sol\":1271:1278  claimed */\n      0x00\n        /* \"contracts/Airdrop_merkle.sol\":1271:1290  claimed[msg.sender] */\n      dup1\n        /* \"contracts/Airdrop_merkle.sol\":1279:1289  msg.sender */\n      caller\n        /* \"contracts/Airdrop_merkle.sol\":1271:1290  claimed[msg.sender] */\n      0xffffffffffffffffffffffffffffffffffffffff\n      and\n      0xffffffffffffffffffffffffffffffffffffffff\n      and\n      dup2\n      mstore\n      0x20\n      add\n      swap1\n      dup2\n      mstore\n      0x20\n      add\n      0x00\n      keccak256\n      0x00\n        /* \"contracts/Airdrop_merkle.sol\":1271:1297  claimed[msg.sender] = true */\n      0x0100\n      exp\n      dup2\n      sload\n      dup2\n      0xff\n      mul\n      not\n      and\n      swap1\n      dup4\n      iszero\n      iszero\n      mul\n      or\n      swap1\n      sstore\n      pop\n        /* \"contracts/Airdrop_merkle.sol\":1334:1381  IERC20(token).safeTransfer(msg.sender, 1 ether) */\n      tag_42\n        /* \"contracts/Airdrop_merkle.sol\":1361:1371  msg.sender */\n      caller\n        /* \"contracts/Airdrop_merkle.sol\":1373:1380  1 ether */\n      0x0de0b6b3a7640000\n        /* \"contracts/Airdrop_merkle.sol\":1341:1346  token */\n      immutable(\"0xf351411405857f824037d1f95603d55d8bcd97d02134ce4467b9a9c7b79cf9d9\")\n        /* \"contracts/Airdrop_merkle.sol\":1334:1360  IERC20(token).safeTransfer */\n      0xffffffffffffffffffffffffffffffffffffffff\n      and\n      tag_43\n      swap1\n        /* \"contracts/Airdrop_merkle.sol\":1334:1381  IERC20(token).safeTransfer(msg.sender, 1 ether) */\n      swap3\n      swap2\n      swap1\n      0xffffffff\n      and\n      jump\t// in\n    tag_42:\n        /* \"contracts/Airdrop_merkle.sol\":1405:1415  msg.sender */\n      caller\n        /* \"contracts/Airdrop_merkle.sol\":1399:1416  Claim(msg.sender) */\n      0xffffffffffffffffffffffffffffffffffffffff\n      and\n      0x0c7ef932d3b91976772937f18d5ef9b39a9930bef486b576c374f047c4b512dc\n      mload(0x40)\n      mload(0x40)\n      dup1\n      swap2\n      sub\n      swap1\n      log2\n        /* \"contracts/Airdrop_merkle.sol\":1075:1426  function claim(bytes32[] calldata mp) external {\r... */\n      pop\n      pop\n      jump\t// out\n        /* \"contracts/Airdrop_merkle.sol\":649:688  mapping(address => bool) public claimed */\n    tag_21:\n      mstore(0x20, 0x00)\n      dup1\n      0x00\n      mstore\n      keccak256(0x00, 0x40)\n      0x00\n      swap2\n      pop\n      sload\n      swap1\n      0x0100\n      exp\n      swap1\n      div\n      0xff\n      and\n      dup2\n      jump\t// out\n        /* \"contracts/Airdrop_merkle.sol\":477:507  address public immutable token */\n    tag_24:\n      immutable(\"0xf351411405857f824037d1f95603d55d8bcd97d02134ce4467b9a9c7b79cf9d9\")\n      dup2\n      jump\t// out\n        /* \"contracts/Airdrop_merkle.sol\":410:439  bytes32 public immutable tree */\n    tag_28:\n      immutable(\"0xd2f7726eb1d129c4ce63d49cbf6bc48740d44f5a10e2fb1f680386f1a976123a\")\n      dup2\n      jump\t// out\n        /* \"@openzeppelin/contracts/utils/cryptography/MerkleProof.sol\":1156:1340  function verify(... */\n    tag_36:\n        /* \"@openzeppelin/contracts/utils/cryptography/MerkleProof.sol\":1277:1281  bool */\n      0x00\n        /* \"@openzeppelin/contracts/utils/cryptography/MerkleProof.sol\":1329:1333  root */\n      dup3\n        /* \"@openzeppelin/contracts/utils/cryptography/MerkleProof.sol\":1300:1325  processProof(proof, leaf) */\n      tag_45\n        /* \"@openzeppelin/contracts/utils/cryptography/MerkleProof.sol\":1313:1318  proof */\n      dup6\n        /* \"@openzeppelin/contracts/utils/cryptography/MerkleProof.sol\":1320:1324  leaf */\n      dup5\n        /* \"@openzeppelin/contracts/utils/cryptography/MerkleProof.sol\":1300:1312  processProof */\n      tag_46\n        /* \"@openzeppelin/contracts/utils/cryptography/MerkleProof.sol\":1300:1325  processProof(proof, leaf) */\n      jump\t// in\n    tag_45:\n        /* \"@openzeppelin/contracts/utils/cryptography/MerkleProof.sol\":1300:1333  processProof(proof, leaf) == root */\n      eq\n        /* \"@openzeppelin/contracts/utils/cryptography/MerkleProof.sol\":1293:1333  return processProof(proof, leaf) == root */\n      swap1\n      pop\n        /* \"@openzeppelin/contracts/utils/cryptography/MerkleProof.sol\":1156:1340  function verify(... */\n      swap4\n      swap3\n      pop\n      pop\n      pop\n      jump\t// out\n        /* \"@openzeppelin/contracts/token/ERC20/utils/SafeERC20.sol\":763:968  function safeTransfer(... */\n    tag_43:\n        /* \"@openzeppelin/contracts/token/ERC20/utils/SafeERC20.sol\":875:961  _callOptionalReturn(token, abi.encodeWithSelector(token.transfer.selector, to, value)) */\n      tag_48\n        /* \"@openzeppelin/contracts/token/ERC20/utils/SafeERC20.sol\":895:900  token */\n      dup4\n        /* \"@openzeppelin/contracts/token/ERC20/utils/SafeERC20.sol\":925:948  token.transfer.selector */\n      shl(0xe0, 0xa9059cbb)\n        /* \"@openzeppelin/contracts/token/ERC20/utils/SafeERC20.sol\":950:952  to */\n      dup5\n        /* \"@openzeppelin/contracts/token/ERC20/utils/SafeERC20.sol\":954:959  value */\n      dup5\n        /* \"@openzeppelin/contracts/token/ERC20/utils/SafeERC20.sol\":902:960  abi.encodeWithSelector(token.transfer.selector, to, value) */\n      add(0x24, mload(0x40))\n      tag_49\n      swap3\n      swap2\n      swap1\n      tag_50\n      jump\t// in\n    tag_49:\n      mload(0x40)\n      0x20\n      dup2\n      dup4\n      sub\n      sub\n      dup2\n      mstore\n      swap1\n      0x40\n      mstore\n      swap1\n      not(0xffffffffffffffffffffffffffffffffffffffffffffffffffffffff)\n      and\n      0x20\n      dup3\n      add\n      dup1\n      mload\n      0xffffffffffffffffffffffffffffffffffffffffffffffffffffffff\n      dup4\n      dup2\n      dup4\n      and\n      or\n      dup4\n      mstore\n      pop\n      pop\n      pop\n      pop\n        /* \"@openzeppelin/contracts/token/ERC20/utils/SafeERC20.sol\":875:894  _callOptionalReturn */\n      tag_51\n        /* \"@openzeppelin/contracts/token/ERC20/utils/SafeERC20.sol\":875:961  _callOptionalReturn(token, abi.encodeWithSelector(token.transfer.selector, to, value)) */\n      jump\t// in\n    tag_48:\n        /* \"@openzeppelin/contracts/token/ERC20/utils/SafeERC20.sol\":763:968  function safeTransfer(... */\n      pop\n      pop\n      pop\n      jump\t// out\n        /* \"@openzeppelin/contracts/utils/cryptography/MerkleProof.sol\":1994:2284  function processProof(bytes32[] memory proof, bytes32 leaf) internal pure returns (bytes32) {... */\n    tag_46:\n        /* \"@openzeppelin/contracts/utils/cryptography/MerkleProof.sol\":2077:2084  bytes32 */\n      0x00\n        /* \"@openzeppelin/contracts/utils/cryptography/MerkleProof.sol\":2096:2116  bytes32 computedHash */\n      dup1\n        /* \"@openzeppelin/contracts/utils/cryptography/MerkleProof.sol\":2119:2123  leaf */\n      dup3\n        /* \"@openzeppelin/contracts/utils/cryptography/MerkleProof.sol\":2096:2123  bytes32 computedHash = leaf */\n      swap1\n      pop\n        /* \"@openzeppelin/contracts/utils/cryptography/MerkleProof.sol\":2138:2147  uint256 i */\n      0x00\n        /* \"@openzeppelin/contracts/utils/cryptography/MerkleProof.sol\":2133:2249  for (uint256 i = 0; i < proof.length; i++) {... */\n    tag_53:\n        /* \"@openzeppelin/contracts/utils/cryptography/MerkleProof.sol\":2157:2162  proof */\n      dup5\n        /* \"@openzeppelin/contracts/utils/cryptography/MerkleProof.sol\":2157:2169  proof.length */\n      mload\n        /* \"@openzeppelin/contracts/utils/cryptography/MerkleProof.sol\":2153:2154  i */\n      dup2\n        /* \"@openzeppelin/contracts/utils/cryptography/MerkleProof.sol\":2153:2169  i < proof.length */\n      lt\n        /* \"@openzeppelin/contracts/utils/cryptography/MerkleProof.sol\":2133:2249  for (uint256 i = 0; i < proof.length; i++) {... */\n      iszero\n      tag_54\n      jumpi\n        /* \"@openzeppelin/contracts/utils/cryptography/MerkleProof.sol\":2205:2238  _hashPair(computedHash, proof[i]) */\n      tag_56\n        /* \"@openzeppelin/contracts/utils/cryptography/MerkleProof.sol\":2215:2227  computedHash */\n      dup3\n        /* \"@openzeppelin/contracts/utils/cryptography/MerkleProof.sol\":2229:2234  proof */\n      dup7\n        /* \"@openzeppelin/contracts/utils/cryptography/MerkleProof.sol\":2235:2236  i */\n      dup4\n        /* \"@openzeppelin/contracts/utils/cryptography/MerkleProof.sol\":2229:2237  proof[i] */\n      dup2\n      mload\n      dup2\n      lt\n      tag_57\n      jumpi\n      tag_58\n      tag_59\n      jump\t// in\n    tag_58:\n    tag_57:\n      0x20\n      mul\n      0x20\n      add\n      add\n      mload\n        /* \"@openzeppelin/contracts/utils/cryptography/MerkleProof.sol\":2205:2214  _hashPair */\n      tag_60\n        /* \"@openzeppelin/contracts/utils/cryptography/MerkleProof.sol\":2205:2238  _hashPair(computedHash, proof[i]) */\n      jump\t// in\n    tag_56:\n        /* \"@openzeppelin/contracts/utils/cryptography/MerkleProof.sol\":2190:2238  computedHash = _hashPair(computedHash, proof[i]) */\n      swap2\n      pop\n        /* \"@openzeppelin/contracts/utils/cryptography/MerkleProof.sol\":2171:2174  i++ */\n      dup1\n      dup1\n      tag_61\n      swap1\n      tag_62\n      jump\t// in\n    tag_61:\n      swap2\n      pop\n      pop\n        /* \"@openzeppelin/contracts/utils/cryptography/MerkleProof.sol\":2133:2249  for (uint256 i = 0; i < proof.length; i++) {... */\n      jump(tag_53)\n    tag_54:\n      pop\n        /* \"@openzeppelin/contracts/utils/cryptography/MerkleProof.sol\":2265:2277  computedHash */\n      dup1\n        /* \"@openzeppelin/contracts/utils/cryptography/MerkleProof.sol\":2258:2277  return computedHash */\n      swap2\n      pop\n      pop\n        /* \"@openzeppelin/contracts/utils/cryptography/MerkleProof.sol\":1994:2284  function processProof(bytes32[] memory proof, bytes32 leaf) internal pure returns (bytes32) {... */\n      swap3\n      swap2\n      pop\n      pop\n      jump\t// out\n        /* \"@openzeppelin/contracts/token/ERC20/utils/SafeERC20.sol\":3747:4453  function _callOptionalReturn(IERC20 token, bytes memory data) private {... */\n    tag_51:\n        /* \"@openzeppelin/contracts/token/ERC20/utils/SafeERC20.sol\":4166:4189  bytes memory returndata */\n      0x00\n        /* \"@openzeppelin/contracts/token/ERC20/utils/SafeERC20.sol\":4192:4261  address(token).functionCall(data, \"SafeERC20: low-level call failed\") */\n      tag_64\n        /* \"@openzeppelin/contracts/token/ERC20/utils/SafeERC20.sol\":4220:4224  data */\n      dup3\n        /* \"@openzeppelin/contracts/token/ERC20/utils/SafeERC20.sol\":4192:4261  address(token).functionCall(data, \"SafeERC20: low-level call failed\") */\n      mload(0x40)\n      dup1\n      0x40\n      add\n      0x40\n      mstore\n      dup1\n      0x20\n      dup2\n      mstore\n      0x20\n      add\n      0x5361666545524332303a206c6f772d6c6576656c2063616c6c206661696c6564\n      dup2\n      mstore\n      pop\n        /* \"@openzeppelin/contracts/token/ERC20/utils/SafeERC20.sol\":4200:4205  token */\n      dup6\n        /* \"@openzeppelin/contracts/token/ERC20/utils/SafeERC20.sol\":4192:4219  address(token).functionCall */\n      0xffffffffffffffffffffffffffffffffffffffff\n      and\n      tag_65\n      swap1\n        /* \"@openzeppelin/contracts/token/ERC20/utils/SafeERC20.sol\":4192:4261  address(token).functionCall(data, \"SafeERC20: low-level call failed\") */\n      swap3\n      swap2\n      swap1\n      0xffffffff\n      and\n      jump\t// in\n    tag_64:\n        /* \"@openzeppelin/contracts/token/ERC20/utils/SafeERC20.sol\":4166:4261  bytes memory returndata = address(token).functionCall(data, \"SafeERC20: low-level call failed\") */\n      swap1\n      pop\n        /* \"@openzeppelin/contracts/token/ERC20/utils/SafeERC20.sol\":4295:4296  0 */\n      0x00\n        /* \"@openzeppelin/contracts/token/ERC20/utils/SafeERC20.sol\":4275:4285  returndata */\n      dup2\n        /* \"@openzeppelin/contracts/token/ERC20/utils/SafeERC20.sol\":4275:4292  returndata.length */\n      mload\n        /* \"@openzeppelin/contracts/token/ERC20/utils/SafeERC20.sol\":4275:4296  returndata.length > 0 */\n      gt\n        /* \"@openzeppelin/contracts/token/ERC20/utils/SafeERC20.sol\":4271:4447  if (returndata.length > 0) {... */\n      iszero\n      tag_66\n      jumpi\n        /* \"@openzeppelin/contracts/token/ERC20/utils/SafeERC20.sol\":4370:4380  returndata */\n      dup1\n        /* \"@openzeppelin/contracts/token/ERC20/utils/SafeERC20.sol\":4359:4389  abi.decode(returndata, (bool)) */\n      dup1\n      0x20\n      add\n      swap1\n      mload\n      dup2\n      add\n      swap1\n      tag_67\n      swap2\n      swap1\n      tag_68\n      jump\t// in\n    tag_67:\n        /* \"@openzeppelin/contracts/token/ERC20/utils/SafeERC20.sol\":4351:4436  require(abi.decode(returndata, (bool)), \"SafeERC20: ERC20 operation did not succeed\") */\n      tag_69\n      jumpi\n      mload(0x40)\n      0x08c379a000000000000000000000000000000000000000000000000000000000\n      dup2\n      mstore\n      0x04\n      add\n      tag_70\n      swap1\n      tag_71\n      jump\t// in\n    tag_70:\n      mload(0x40)\n      dup1\n      swap2\n      sub\n      swap1\n      revert\n    tag_69:\n        /* \"@openzeppelin/contracts/token/ERC20/utils/SafeERC20.sol\":4271:4447  if (returndata.length > 0) {... */\n    tag_66:\n        /* \"@openzeppelin/contracts/token/ERC20/utils/SafeERC20.sol\":3817:4453  {... */\n      pop\n        /* \"@openzeppelin/contracts/token/ERC20/utils/SafeERC20.sol\":3747:4453  function _callOptionalReturn(IERC20 token, bytes memory data) private {... */\n      pop\n      pop\n      jump\t// out\n        /* \"@openzeppelin/contracts/utils/cryptography/MerkleProof.sol\":8879:9026  function _hashPair(bytes32 a, bytes32 b) private pure returns (bytes32) {... */\n    tag_60:\n        /* \"@openzeppelin/contracts/utils/cryptography/MerkleProof.sol\":8942:8949  bytes32 */\n      0x00\n        /* \"@openzeppelin/contracts/utils/cryptography/MerkleProof.sol\":8972:8973  b */\n      dup2\n        /* \"@openzeppelin/contracts/utils/cryptography/MerkleProof.sol\":8968:8969  a */\n      dup4\n        /* \"@openzeppelin/contracts/utils/cryptography/MerkleProof.sol\":8968:8973  a < b */\n      lt\n        /* \"@openzeppelin/contracts/utils/cryptography/MerkleProof.sol\":8968:9019  a < b ? _efficientHash(a, b) : _efficientHash(b, a) */\n      tag_73\n      jumpi\n        /* \"@openzeppelin/contracts/utils/cryptography/MerkleProof.sol\":8999:9019  _efficientHash(b, a) */\n      tag_74\n        /* \"@openzeppelin/contracts/utils/cryptography/MerkleProof.sol\":9014:9015  b */\n      dup3\n        /* \"@openzeppelin/contracts/utils/cryptography/MerkleProof.sol\":9017:9018  a */\n      dup5\n        /* \"@openzeppelin/contracts/utils/cryptography/MerkleProof.sol\":8999:9013  _efficientHash */\n      tag_75\n        /* \"@openzeppelin/contracts/utils/cryptography/MerkleProof.sol\":8999:9019  _efficientHash(b, a) */\n      jump\t// in\n    tag_74:\n        /* \"@openzeppelin/contracts/utils/cryptography/MerkleProof.sol\":8968:9019  a < b ? _efficientHash(a, b) : _efficientHash(b, a) */\n      jump(tag_76)\n    tag_73:\n        /* \"@openzeppelin/contracts/utils/cryptography/MerkleProof.sol\":8976:8996  _efficientHash(a, b) */\n      tag_77\n        /* \"@openzeppelin/contracts/utils/cryptography/MerkleProof.sol\":8991:8992  a */\n      dup4\n        /* \"@openzeppelin/contracts/utils/cryptography/MerkleProof.sol\":8994:8995  b */\n      dup4\n        /* \"@openzeppelin/contracts/utils/cryptography/MerkleProof.sol\":8976:8990  _efficientHash */\n      tag_75\n        /* \"@openzeppelin/contracts/utils/cryptography/MerkleProof.sol\":8976:8996  _efficientHash(a, b) */\n      jump\t// in\n    tag_77:\n        /* \"@openzeppelin/contracts/utils/cryptography/MerkleProof.sol\":8968:9019  a < b ? _efficientHash(a, b) : _efficientHash(b, a) */\n    tag_76:\n        /* \"@openzeppelin/contracts/utils/cryptography/MerkleProof.sol\":8961:9019  return a < b ? _efficientHash(a, b) : _efficientHash(b, a) */\n      swap1\n      pop\n        /* \"@openzeppelin/contracts/utils/cryptography/MerkleProof.sol\":8879:9026  function _hashPair(bytes32 a, bytes32 b) private pure returns (bytes32) {... */\n      swap3\n      swap2\n      pop\n      pop\n      jump\t// out\n        /* \"@openzeppelin/contracts/utils/Address.sol\":3873:4096  function functionCall(... */\n    tag_65:\n        /* \"@openzeppelin/contracts/utils/Address.sol\":4006:4018  bytes memory */\n      0x60\n        /* \"@openzeppelin/contracts/utils/Address.sol\":4037:4089  functionCallWithValue(target, data, 0, errorMessage) */\n      tag_79\n        /* \"@openzeppelin/contracts/utils/Address.sol\":4059:4065  target */\n      dup5\n        /* \"@openzeppelin/contracts/utils/Address.sol\":4067:4071  data */\n      dup5\n        /* \"@openzeppelin/contracts/utils/Address.sol\":4073:4074  0 */\n      0x00\n        /* \"@openzeppelin/contracts/utils/Address.sol\":4076:4088  errorMessage */\n      dup6\n        /* \"@openzeppelin/contracts/utils/Address.sol\":4037:4058  functionCallWithValue */\n      tag_80\n        /* \"@openzeppelin/contracts/utils/Address.sol\":4037:4089  functionCallWithValue(target, data, 0, errorMessage) */\n      jump\t// in\n    tag_79:\n        /* \"@openzeppelin/contracts/utils/Address.sol\":4030:4089  return functionCallWithValue(target, data, 0, errorMessage) */\n      swap1\n      pop\n        /* \"@openzeppelin/contracts/utils/Address.sol\":3873:4096  function functionCall(... */\n      swap4\n      swap3\n      pop\n      pop\n      pop\n      jump\t// out\n        /* \"@openzeppelin/contracts/utils/cryptography/MerkleProof.sol\":9032:9293  function _efficientHash(bytes32 a, bytes32 b) private pure returns (bytes32 value) {... */\n    tag_75:\n        /* \"@openzeppelin/contracts/utils/cryptography/MerkleProof.sol\":9100:9113  bytes32 value */\n      0x00\n        /* \"@openzeppelin/contracts/utils/cryptography/MerkleProof.sol\":9204:9205  a */\n      dup3\n        /* \"@openzeppelin/contracts/utils/cryptography/MerkleProof.sol\":9198:9202  0x00 */\n      0x00\n        /* \"@openzeppelin/contracts/utils/cryptography/MerkleProof.sol\":9191:9206  mstore(0x00, a) */\n      mstore\n        /* \"@openzeppelin/contracts/utils/cryptography/MerkleProof.sol\":9232:9233  b */\n      dup2\n        /* \"@openzeppelin/contracts/utils/cryptography/MerkleProof.sol\":9226:9230  0x20 */\n      0x20\n        /* \"@openzeppelin/contracts/utils/cryptography/MerkleProof.sol\":9219:9234  mstore(0x20, b) */\n      mstore\n        /* \"@openzeppelin/contracts/utils/cryptography/MerkleProof.sol\":9272:9276  0x40 */\n      0x40\n        /* \"@openzeppelin/contracts/utils/cryptography/MerkleProof.sol\":9266:9270  0x00 */\n      0x00\n        /* \"@openzeppelin/contracts/utils/cryptography/MerkleProof.sol\":9256:9277  keccak256(0x00, 0x40) */\n      keccak256\n        /* \"@openzeppelin/contracts/utils/cryptography/MerkleProof.sol\":9247:9277  value := keccak256(0x00, 0x40) */\n      swap1\n      pop\n        /* \"@openzeppelin/contracts/utils/cryptography/MerkleProof.sol\":9032:9293  function _efficientHash(bytes32 a, bytes32 b) private pure returns (bytes32 value) {... */\n      swap3\n      swap2\n      pop\n      pop\n      jump\t// out\n        /* \"@openzeppelin/contracts/utils/Address.sol\":4960:5406  function functionCallWithValue(... */\n    tag_80:\n        /* \"@openzeppelin/contracts/utils/Address.sol\":5125:5137  bytes memory */\n      0x60\n        /* \"@openzeppelin/contracts/utils/Address.sol\":5182:5187  value */\n      dup3\n        /* \"@openzeppelin/contracts/utils/Address.sol\":5157:5178  address(this).balance */\n      selfbalance\n        /* \"@openzeppelin/contracts/utils/Address.sol\":5157:5187  address(this).balance >= value */\n      lt\n      iszero\n        /* \"@openzeppelin/contracts/utils/Address.sol\":5149:5230  require(address(this).balance >= value, \"Address: insufficient balance for call\") */\n      tag_83\n      jumpi\n      mload(0x40)\n      0x08c379a000000000000000000000000000000000000000000000000000000000\n      dup2\n      mstore\n      0x04\n      add\n      tag_84\n      swap1\n      tag_85\n      jump\t// in\n    tag_84:\n      mload(0x40)\n      dup1\n      swap2\n      sub\n      swap1\n      revert\n    tag_83:\n        /* \"@openzeppelin/contracts/utils/Address.sol\":5241:5253  bool success */\n      0x00\n        /* \"@openzeppelin/contracts/utils/Address.sol\":5255:5278  bytes memory returndata */\n      dup1\n        /* \"@openzeppelin/contracts/utils/Address.sol\":5282:5288  target */\n      dup7\n        /* \"@openzeppelin/contracts/utils/Address.sol\":5282:5293  target.call */\n      0xffffffffffffffffffffffffffffffffffffffff\n      and\n        /* \"@openzeppelin/contracts/utils/Address.sol\":5301:5306  value */\n      dup6\n        /* \"@openzeppelin/contracts/utils/Address.sol\":5308:5312  data */\n      dup8\n        /* \"@openzeppelin/contracts/utils/Address.sol\":5282:5313  target.call{value: value}(data) */\n      mload(0x40)\n      tag_86\n      swap2\n      swap1\n      tag_87\n      jump\t// in\n    tag_86:\n      0x00\n      mload(0x40)\n      dup1\n      dup4\n      sub\n      dup2\n      dup6\n      dup8\n      gas\n      call\n      swap3\n      pop\n      pop\n      pop\n      returndatasize\n      dup1\n      0x00\n      dup2\n      eq\n      tag_90\n      jumpi\n      mload(0x40)\n      swap2\n      pop\n      and(add(returndatasize, 0x3f), not(0x1f))\n      dup3\n      add\n      0x40\n      mstore\n      returndatasize\n      dup3\n      mstore\n      returndatasize\n      0x00\n      0x20\n      dup5\n      add\n      returndatacopy\n      jump(tag_89)\n    tag_90:\n      0x60\n      swap2\n      pop\n    tag_89:\n      pop\n        /* \"@openzeppelin/contracts/utils/Address.sol\":5240:5313  (bool success, bytes memory returndata) = target.call{value: value}(data) */\n      swap2\n      pop\n      swap2\n      pop\n        /* \"@openzeppelin/contracts/utils/Address.sol\":5330:5399  verifyCallResultFromTarget(target, success, returndata, errorMessage) */\n      tag_91\n        /* \"@openzeppelin/contracts/utils/Address.sol\":5357:5363  target */\n      dup8\n        /* \"@openzeppelin/contracts/utils/Address.sol\":5365:5372  success */\n      dup4\n        /* \"@openzeppelin/contracts/utils/Address.sol\":5374:5384  returndata */\n      dup4\n        /* \"@openzeppelin/contracts/utils/Address.sol\":5386:5398  errorMessage */\n      dup8\n        /* \"@openzeppelin/contracts/utils/Address.sol\":5330:5356  verifyCallResultFromTarget */\n      tag_92\n        /* \"@openzeppelin/contracts/utils/Address.sol\":5330:5399  verifyCallResultFromTarget(target, success, returndata, errorMessage) */\n      jump\t// in\n    tag_91:\n        /* \"@openzeppelin/contracts/utils/Address.sol\":5323:5399  return verifyCallResultFromTarget(target, success, returndata, errorMessage) */\n      swap3\n      pop\n      pop\n      pop\n        /* \"@openzeppelin/contracts/utils/Address.sol\":4960:5406  function functionCallWithValue(... */\n      swap5\n      swap4\n      pop\n      pop\n      pop\n      pop\n      jump\t// out\n        /* \"@openzeppelin/contracts/utils/Address.sol\":7466:8094  function verifyCallResultFromTarget(... */\n    tag_92:\n        /* \"@openzeppelin/contracts/utils/Address.sol\":7646:7658  bytes memory */\n      0x60\n        /* \"@openzeppelin/contracts/utils/Address.sol\":7674:7681  success */\n      dup4\n        /* \"@openzeppelin/contracts/utils/Address.sol\":7670:8088  if (success) {... */\n      iszero\n      tag_94\n      jumpi\n        /* \"@openzeppelin/contracts/utils/Address.sol\":7722:7723  0 */\n      0x00\n        /* \"@openzeppelin/contracts/utils/Address.sol\":7701:7711  returndata */\n      dup4\n        /* \"@openzeppelin/contracts/utils/Address.sol\":7701:7718  returndata.length */\n      mload\n        /* \"@openzeppelin/contracts/utils/Address.sol\":7701:7723  returndata.length == 0 */\n      eq\n        /* \"@openzeppelin/contracts/utils/Address.sol\":7697:7983  if (returndata.length == 0) {... */\n      iszero\n      tag_95\n      jumpi\n        /* \"@openzeppelin/contracts/utils/Address.sol\":7916:7934  isContract(target) */\n      tag_96\n        /* \"@openzeppelin/contracts/utils/Address.sol\":7927:7933  target */\n      dup6\n        /* \"@openzeppelin/contracts/utils/Address.sol\":7916:7926  isContract */\n      tag_97\n        /* \"@openzeppelin/contracts/utils/Address.sol\":7916:7934  isContract(target) */\n      jump\t// in\n    tag_96:\n        /* \"@openzeppelin/contracts/utils/Address.sol\":7908:7968  require(isContract(target), \"Address: call to non-contract\") */\n      tag_98\n      jumpi\n      mload(0x40)\n      0x08c379a000000000000000000000000000000000000000000000000000000000\n      dup2\n      mstore\n      0x04\n      add\n      tag_99\n      swap1\n      tag_100\n      jump\t// in\n    tag_99:\n      mload(0x40)\n      dup1\n      swap2\n      sub\n      swap1\n      revert\n    tag_98:\n        /* \"@openzeppelin/contracts/utils/Address.sol\":7697:7983  if (returndata.length == 0) {... */\n    tag_95:\n        /* \"@openzeppelin/contracts/utils/Address.sol\":8003:8013  returndata */\n      dup3\n        /* \"@openzeppelin/contracts/utils/Address.sol\":7996:8013  return returndata */\n      swap1\n      pop\n      jump(tag_93)\n        /* \"@openzeppelin/contracts/utils/Address.sol\":7670:8088  if (success) {... */\n    tag_94:\n        /* \"@openzeppelin/contracts/utils/Address.sol\":8044:8077  _revert(returndata, errorMessage) */\n      tag_102\n        /* \"@openzeppelin/contracts/utils/Address.sol\":8052:8062  returndata */\n      dup4\n        /* \"@openzeppelin/contracts/utils/Address.sol\":8064:8076  errorMessage */\n      dup4\n        /* \"@openzeppelin/contracts/utils/Address.sol\":8044:8051  _revert */\n      tag_103\n        /* \"@openzeppelin/contracts/utils/Address.sol\":8044:8077  _revert(returndata, errorMessage) */\n      jump\t// in\n    tag_102:\n        /* \"@openzeppelin/contracts/utils/Address.sol\":7466:8094  function verifyCallResultFromTarget(... */\n    tag_93:\n      swap5\n      swap4\n      pop\n      pop\n      pop\n      pop\n      jump\t// out\n        /* \"@openzeppelin/contracts/utils/Address.sol\":1175:1495  function isContract(address account) internal view returns (bool) {... */\n    tag_97:\n        /* \"@openzeppelin/contracts/utils/Address.sol\":1235:1239  bool */\n      0x00\n        /* \"@openzeppelin/contracts/utils/Address.sol\":1487:1488  0 */\n      dup1\n        /* \"@openzeppelin/contracts/utils/Address.sol\":1465:1472  account */\n      dup3\n        /* \"@openzeppelin/contracts/utils/Address.sol\":1465:1484  account.code.length */\n      0xffffffffffffffffffffffffffffffffffffffff\n      and\n      extcodesize\n        /* \"@openzeppelin/contracts/utils/Address.sol\":1465:1488  account.code.length > 0 */\n      gt\n        /* \"@openzeppelin/contracts/utils/Address.sol\":1458:1488  return account.code.length > 0 */\n      swap1\n      pop\n        /* \"@openzeppelin/contracts/utils/Address.sol\":1175:1495  function isContract(address account) internal view returns (bool) {... */\n      swap2\n      swap1\n      pop\n      jump\t// out\n        /* \"@openzeppelin/contracts/utils/Address.sol\":8616:9156  function _revert(bytes memory returndata, string memory errorMessage) private pure {... */\n    tag_103:\n        /* \"@openzeppelin/contracts/utils/Address.sol\":8795:8796  0 */\n      0x00\n        /* \"@openzeppelin/contracts/utils/Address.sol\":8775:8785  returndata */\n      dup3\n        /* \"@openzeppelin/contracts/utils/Address.sol\":8775:8792  returndata.length */\n      mload\n        /* \"@openzeppelin/contracts/utils/Address.sol\":8775:8796  returndata.length > 0 */\n      gt\n        /* \"@openzeppelin/contracts/utils/Address.sol\":8771:9150  if (returndata.length > 0) {... */\n      iszero\n      tag_106\n      jumpi\n        /* \"@openzeppelin/contracts/utils/Address.sol\":9003:9013  returndata */\n      dup2\n        /* \"@openzeppelin/contracts/utils/Address.sol\":8997:9014  mload(returndata) */\n      mload\n        /* \"@openzeppelin/contracts/utils/Address.sol\":9059:9074  returndata_size */\n      dup1\n        /* \"@openzeppelin/contracts/utils/Address.sol\":9046:9056  returndata */\n      dup4\n        /* \"@openzeppelin/contracts/utils/Address.sol\":9042:9044  32 */\n      0x20\n        /* \"@openzeppelin/contracts/utils/Address.sol\":9038:9057  add(32, returndata) */\n      add\n        /* \"@openzeppelin/contracts/utils/Address.sol\":9031:9075  revert(add(32, returndata), returndata_size) */\n      revert\n        /* \"@openzeppelin/contracts/utils/Address.sol\":8771:9150  if (returndata.length > 0) {... */\n    tag_106:\n        /* \"@openzeppelin/contracts/utils/Address.sol\":9126:9138  errorMessage */\n      dup1\n        /* \"@openzeppelin/contracts/utils/Address.sol\":9119:9139  revert(errorMessage) */\n      mload(0x40)\n      0x08c379a000000000000000000000000000000000000000000000000000000000\n      dup2\n      mstore\n      0x04\n      add\n      tag_108\n      swap2\n      swap1\n      tag_109\n      jump\t// in\n    tag_108:\n      mload(0x40)\n      dup1\n      swap2\n      sub\n      swap1\n      revert\n        /* \"#utility.yul\":7:146   */\n    tag_111:\n        /* \"#utility.yul\":53:58   */\n      0x00\n        /* \"#utility.yul\":91:97   */\n      dup2\n        /* \"#utility.yul\":78:98   */\n      calldataload\n        /* \"#utility.yul\":69:98   */\n      swap1\n      pop\n        /* \"#utility.yul\":107:140   */\n      tag_113\n        /* \"#utility.yul\":134:139   */\n      dup2\n        /* \"#utility.yul\":107:140   */\n      tag_114\n      jump\t// in\n    tag_113:\n        /* \"#utility.yul\":7:146   */\n      swap3\n      swap2\n      pop\n      pop\n      jump\t// out\n        /* \"#utility.yul\":169:737   */\n    tag_115:\n        /* \"#utility.yul\":242:250   */\n      0x00\n        /* \"#utility.yul\":252:258   */\n      dup1\n        /* \"#utility.yul\":302:305   */\n      dup4\n        /* \"#utility.yul\":295:299   */\n      0x1f\n        /* \"#utility.yul\":287:293   */\n      dup5\n        /* \"#utility.yul\":283:300   */\n      add\n        /* \"#utility.yul\":279:306   */\n      slt\n        /* \"#utility.yul\":269:391   */\n      tag_117\n      jumpi\n        /* \"#utility.yul\":310:389   */\n      tag_118\n      tag_119\n      jump\t// in\n    tag_118:\n        /* \"#utility.yul\":269:391   */\n    tag_117:\n        /* \"#utility.yul\":423:429   */\n      dup3\n        /* \"#utility.yul\":410:430   */\n      calldataload\n        /* \"#utility.yul\":400:430   */\n      swap1\n      pop\n        /* \"#utility.yul\":453:471   */\n      0xffffffffffffffff\n        /* \"#utility.yul\":445:451   */\n      dup2\n        /* \"#utility.yul\":442:472   */\n      gt\n        /* \"#utility.yul\":439:556   */\n      iszero\n      tag_120\n      jumpi\n        /* \"#utility.yul\":475:554   */\n      tag_121\n      tag_122\n      jump\t// in\n    tag_121:\n        /* \"#utility.yul\":439:556   */\n    tag_120:\n        /* \"#utility.yul\":589:593   */\n      0x20\n        /* \"#utility.yul\":581:587   */\n      dup4\n        /* \"#utility.yul\":577:594   */\n      add\n        /* \"#utility.yul\":565:594   */\n      swap2\n      pop\n        /* \"#utility.yul\":643:646   */\n      dup4\n        /* \"#utility.yul\":635:639   */\n      0x20\n        /* \"#utility.yul\":627:633   */\n      dup3\n        /* \"#utility.yul\":623:640   */\n      mul\n        /* \"#utility.yul\":613:621   */\n      dup4\n        /* \"#utility.yul\":609:641   */\n      add\n        /* \"#utility.yul\":606:647   */\n      gt\n        /* \"#utility.yul\":603:731   */\n      iszero\n      tag_123\n      jumpi\n        /* \"#utility.yul\":650:729   */\n      tag_124\n      tag_125\n      jump\t// in\n    tag_124:\n        /* \"#utility.yul\":603:731   */\n    tag_123:\n        /* \"#utility.yul\":169:737   */\n      swap3\n      pop\n      swap3\n      swap1\n      pop\n      jump\t// out\n        /* \"#utility.yul\":743:880   */\n    tag_126:\n        /* \"#utility.yul\":797:802   */\n      0x00\n        /* \"#utility.yul\":828:834   */\n      dup2\n        /* \"#utility.yul\":822:835   */\n      mload\n        /* \"#utility.yul\":813:835   */\n      swap1\n      pop\n        /* \"#utility.yul\":844:874   */\n      tag_128\n        /* \"#utility.yul\":868:873   */\n      dup2\n        /* \"#utility.yul\":844:874   */\n      tag_129\n      jump\t// in\n    tag_128:\n        /* \"#utility.yul\":743:880   */\n      swap3\n      swap2\n      pop\n      pop\n      jump\t// out\n        /* \"#utility.yul\":886:1215   */\n    tag_20:\n        /* \"#utility.yul\":945:951   */\n      0x00\n        /* \"#utility.yul\":994:996   */\n      0x20\n        /* \"#utility.yul\":982:991   */\n      dup3\n        /* \"#utility.yul\":973:980   */\n      dup5\n        /* \"#utility.yul\":969:992   */\n      sub\n        /* \"#utility.yul\":965:997   */\n      slt\n        /* \"#utility.yul\":962:1081   */\n      iszero\n      tag_131\n      jumpi\n        /* \"#utility.yul\":1000:1079   */\n      tag_132\n      tag_133\n      jump\t// in\n    tag_132:\n        /* \"#utility.yul\":962:1081   */\n    tag_131:\n        /* \"#utility.yul\":1120:1121   */\n      0x00\n        /* \"#utility.yul\":1145:1198   */\n      tag_134\n        /* \"#utility.yul\":1190:1197   */\n      dup5\n        /* \"#utility.yul\":1181:1187   */\n      dup3\n        /* \"#utility.yul\":1170:1179   */\n      dup6\n        /* \"#utility.yul\":1166:1188   */\n      add\n        /* \"#utility.yul\":1145:1198   */\n      tag_111\n      jump\t// in\n    tag_134:\n        /* \"#utility.yul\":1135:1198   */\n      swap2\n      pop\n        /* \"#utility.yul\":1091:1208   */\n      pop\n        /* \"#utility.yul\":886:1215   */\n      swap3\n      swap2\n      pop\n      pop\n      jump\t// out\n        /* \"#utility.yul\":1221:1925   */\n    tag_10:\n        /* \"#utility.yul\":1316:1322   */\n      0x00\n        /* \"#utility.yul\":1324:1330   */\n      dup1\n        /* \"#utility.yul\":1332:1338   */\n      0x00\n        /* \"#utility.yul\":1381:1383   */\n      0x40\n        /* \"#utility.yul\":1369:1378   */\n      dup5\n        /* \"#utility.yul\":1360:1367   */\n      dup7\n        /* \"#utility.yul\":1356:1379   */\n      sub\n        /* \"#utility.yul\":1352:1384   */\n      slt\n        /* \"#utility.yul\":1349:1468   */\n      iszero\n      tag_136\n      jumpi\n        /* \"#utility.yul\":1387:1466   */\n      tag_137\n      tag_133\n      jump\t// in\n    tag_137:\n        /* \"#utility.yul\":1349:1468   */\n    tag_136:\n        /* \"#utility.yul\":1507:1508   */\n      0x00\n        /* \"#utility.yul\":1532:1585   */\n      tag_138\n        /* \"#utility.yul\":1577:1584   */\n      dup7\n        /* \"#utility.yul\":1568:1574   */\n      dup3\n        /* \"#utility.yul\":1557:1566   */\n      dup8\n        /* \"#utility.yul\":1553:1575   */\n      add\n        /* \"#utility.yul\":1532:1585   */\n      tag_111\n      jump\t// in\n    tag_138:\n        /* \"#utility.yul\":1522:1585   */\n      swap4\n      pop\n        /* \"#utility.yul\":1478:1595   */\n      pop\n        /* \"#utility.yul\":1662:1664   */\n      0x20\n        /* \"#utility.yul\":1651:1660   */\n      dup5\n        /* \"#utility.yul\":1647:1665   */\n      add\n        /* \"#utility.yul\":1634:1666   */\n      calldataload\n        /* \"#utility.yul\":1693:1711   */\n      0xffffffffffffffff\n        /* \"#utility.yul\":1685:1691   */\n      dup2\n        /* \"#utility.yul\":1682:1712   */\n      gt\n        /* \"#utility.yul\":1679:1796   */\n      iszero\n      tag_139\n      jumpi\n        /* \"#utility.yul\":1715:1794   */\n      tag_140\n      tag_141\n      jump\t// in\n    tag_140:\n        /* \"#utility.yul\":1679:1796   */\n    tag_139:\n        /* \"#utility.yul\":1828:1908   */\n      tag_142\n        /* \"#utility.yul\":1900:1907   */\n      dup7\n        /* \"#utility.yul\":1891:1897   */\n      dup3\n        /* \"#utility.yul\":1880:1889   */\n      dup8\n        /* \"#utility.yul\":1876:1898   */\n      add\n        /* \"#utility.yul\":1828:1908   */\n      tag_115\n      jump\t// in\n    tag_142:\n        /* \"#utility.yul\":1810:1908   */\n      swap3\n      pop\n      swap3\n      pop\n        /* \"#utility.yul\":1605:1918   */\n      pop\n        /* \"#utility.yul\":1221:1925   */\n      swap3\n      pop\n      swap3\n      pop\n      swap3\n      jump\t// out\n        /* \"#utility.yul\":1931:2490   */\n    tag_16:\n        /* \"#utility.yul\":2017:2023   */\n      0x00\n        /* \"#utility.yul\":2025:2031   */\n      dup1\n        /* \"#utility.yul\":2074:2076   */\n      0x20\n        /* \"#utility.yul\":2062:2071   */\n      dup4\n        /* \"#utility.yul\":2053:2060   */\n      dup6\n        /* \"#utility.yul\":2049:2072   */\n      sub\n        /* \"#utility.yul\":2045:2077   */\n      slt\n        /* \"#utility.yul\":2042:2161   */\n      iszero\n      tag_144\n      jumpi\n        /* \"#utility.yul\":2080:2159   */\n      tag_145\n      tag_133\n      jump\t// in\n    tag_145:\n        /* \"#utility.yul\":2042:2161   */\n    tag_144:\n        /* \"#utility.yul\":2228:2229   */\n      0x00\n        /* \"#utility.yul\":2217:2226   */\n      dup4\n        /* \"#utility.yul\":2213:2230   */\n      add\n        /* \"#utility.yul\":2200:2231   */\n      calldataload\n        /* \"#utility.yul\":2258:2276   */\n      0xffffffffffffffff\n        /* \"#utility.yul\":2250:2256   */\n      dup2\n        /* \"#utility.yul\":2247:2277   */\n      gt\n        /* \"#utility.yul\":2244:2361   */\n      iszero\n      tag_146\n      jumpi\n        /* \"#utility.yul\":2280:2359   */\n      tag_147\n      tag_141\n      jump\t// in\n    tag_147:\n        /* \"#utility.yul\":2244:2361   */\n    tag_146:\n        /* \"#utility.yul\":2393:2473   */\n      tag_148\n        /* \"#utility.yul\":2465:2472   */\n      dup6\n        /* \"#utility.yul\":2456:2462   */\n      dup3\n        /* \"#utility.yul\":2445:2454   */\n      dup7\n        /* \"#utility.yul\":2441:2463   */\n      add\n        /* \"#utility.yul\":2393:2473   */\n      tag_115\n      jump\t// in\n    tag_148:\n        /* \"#utility.yul\":2375:2473   */\n      swap3\n      pop\n      swap3\n      pop\n        /* \"#utility.yul\":2171:2483   */\n      pop\n        /* \"#utility.yul\":1931:2490   */\n      swap3\n      pop\n      swap3\n      swap1\n      pop\n      jump\t// out\n        /* \"#utility.yul\":2496:2841   */\n    tag_68:\n        /* \"#utility.yul\":2563:2569   */\n      0x00\n        /* \"#utility.yul\":2612:2614   */\n      0x20\n        /* \"#utility.yul\":2600:2609   */\n      dup3\n        /* \"#utility.yul\":2591:2598   */\n      dup5\n        /* \"#utility.yul\":2587:2610   */\n      sub\n        /* \"#utility.yul\":2583:2615   */\n      slt\n        /* \"#utility.yul\":2580:2699   */\n      iszero\n      tag_150\n      jumpi\n        /* \"#utility.yul\":2618:2697   */\n      tag_151\n      tag_133\n      jump\t// in\n    tag_151:\n        /* \"#utility.yul\":2580:2699   */\n    tag_150:\n        /* \"#utility.yul\":2738:2739   */\n      0x00\n        /* \"#utility.yul\":2763:2824   */\n      tag_152\n        /* \"#utility.yul\":2816:2823   */\n      dup5\n        /* \"#utility.yul\":2807:2813   */\n      dup3\n        /* \"#utility.yul\":2796:2805   */\n      dup6\n        /* \"#utility.yul\":2792:2814   */\n      add\n        /* \"#utility.yul\":2763:2824   */\n      tag_126\n      jump\t// in\n    tag_152:\n        /* \"#utility.yul\":2753:2824   */\n      swap2\n      pop\n        /* \"#utility.yul\":2709:2834   */\n      pop\n        /* \"#utility.yul\":2496:2841   */\n      swap3\n      swap2\n      pop\n      pop\n      jump\t// out\n        /* \"#utility.yul\":2847:2965   */\n    tag_153:\n        /* \"#utility.yul\":2934:2958   */\n      tag_155\n        /* \"#utility.yul\":2952:2957   */\n      dup2\n        /* \"#utility.yul\":2934:2958   */\n      tag_156\n      jump\t// in\n    tag_155:\n        /* \"#utility.yul\":2929:2932   */\n      dup3\n        /* \"#utility.yul\":2922:2959   */\n      mstore\n        /* \"#utility.yul\":2847:2965   */\n      pop\n      pop\n      jump\t// out\n        /* \"#utility.yul\":2971:3128   */\n    tag_157:\n        /* \"#utility.yul\":3076:3121   */\n      tag_159\n        /* \"#utility.yul\":3096:3120   */\n      tag_160\n        /* \"#utility.yul\":3114:3119   */\n      dup3\n        /* \"#utility.yul\":3096:3120   */\n      tag_156\n      jump\t// in\n    tag_160:\n        /* \"#utility.yul\":3076:3121   */\n      tag_161\n      jump\t// in\n    tag_159:\n        /* \"#utility.yul\":3071:3074   */\n      dup3\n        /* \"#utility.yul\":3064:3122   */\n      mstore\n        /* \"#utility.yul\":2971:3128   */\n      pop\n      pop\n      jump\t// out\n        /* \"#utility.yul\":3134:3243   */\n    tag_162:\n        /* \"#utility.yul\":3215:3236   */\n      tag_164\n        /* \"#utility.yul\":3230:3235   */\n      dup2\n        /* \"#utility.yul\":3215:3236   */\n      tag_165\n      jump\t// in\n    tag_164:\n        /* \"#utility.yul\":3210:3213   */\n      dup3\n        /* \"#utility.yul\":3203:3237   */\n      mstore\n        /* \"#utility.yul\":3134:3243   */\n      pop\n      pop\n      jump\t// out\n        /* \"#utility.yul\":3249:3367   */\n    tag_166:\n        /* \"#utility.yul\":3336:3360   */\n      tag_168\n        /* \"#utility.yul\":3354:3359   */\n      dup2\n        /* \"#utility.yul\":3336:3360   */\n      tag_169\n      jump\t// in\n    tag_168:\n        /* \"#utility.yul\":3331:3334   */\n      dup3\n        /* \"#utility.yul\":3324:3361   */\n      mstore\n        /* \"#utility.yul\":3249:3367   */\n      pop\n      pop\n      jump\t// out\n        /* \"#utility.yul\":3373:3746   */\n    tag_170:\n        /* \"#utility.yul\":3477:3480   */\n      0x00\n        /* \"#utility.yul\":3505:3543   */\n      tag_172\n        /* \"#utility.yul\":3537:3542   */\n      dup3\n        /* \"#utility.yul\":3505:3543   */\n      tag_173\n      jump\t// in\n    tag_172:\n        /* \"#utility.yul\":3559:3647   */\n      tag_174\n        /* \"#utility.yul\":3640:3646   */\n      dup2\n        /* \"#utility.yul\":3635:3638   */\n      dup6\n        /* \"#utility.yul\":3559:3647   */\n      tag_175\n      jump\t// in\n    tag_174:\n        /* \"#utility.yul\":3552:3647   */\n      swap4\n      pop\n        /* \"#utility.yul\":3656:3708   */\n      tag_176\n        /* \"#utility.yul\":3701:3707   */\n      dup2\n        /* \"#utility.yul\":3696:3699   */\n      dup6\n        /* \"#utility.yul\":3689:3693   */\n      0x20\n        /* \"#utility.yul\":3682:3687   */\n      dup7\n        /* \"#utility.yul\":3678:3694   */\n      add\n        /* \"#utility.yul\":3656:3708   */\n      tag_177\n      jump\t// in\n    tag_176:\n        /* \"#utility.yul\":3733:3739   */\n      dup1\n        /* \"#utility.yul\":3728:3731   */\n      dup5\n        /* \"#utility.yul\":3724:3740   */\n      add\n        /* \"#utility.yul\":3717:3740   */\n      swap2\n      pop\n        /* \"#utility.yul\":3481:3746   */\n      pop\n        /* \"#utility.yul\":3373:3746   */\n      swap3\n      swap2\n      pop\n      pop\n      jump\t// out\n        /* \"#utility.yul\":3752:4116   */\n    tag_178:\n        /* \"#utility.yul\":3840:3843   */\n      0x00\n        /* \"#utility.yul\":3868:3907   */\n      tag_180\n        /* \"#utility.yul\":3901:3906   */\n      dup3\n        /* \"#utility.yul\":3868:3907   */\n      tag_181\n      jump\t// in\n    tag_180:\n        /* \"#utility.yul\":3923:3994   */\n      tag_182\n        /* \"#utility.yul\":3987:3993   */\n      dup2\n        /* \"#utility.yul\":3982:3985   */\n      dup6\n        /* \"#utility.yul\":3923:3994   */\n      tag_183\n      jump\t// in\n    tag_182:\n        /* \"#utility.yul\":3916:3994   */\n      swap4\n      pop\n        /* \"#utility.yul\":4003:4055   */\n      tag_184\n        /* \"#utility.yul\":4048:4054   */\n      dup2\n        /* \"#utility.yul\":4043:4046   */\n      dup6\n        /* \"#utility.yul\":4036:4040   */\n      0x20\n        /* \"#utility.yul\":4029:4034   */\n      dup7\n        /* \"#utility.yul\":4025:4041   */\n      add\n        /* \"#utility.yul\":4003:4055   */\n      tag_177\n      jump\t// in\n    tag_184:\n        /* \"#utility.yul\":4080:4109   */\n      tag_185\n        /* \"#utility.yul\":4102:4108   */\n      dup2\n        /* \"#utility.yul\":4080:4109   */\n      tag_186\n      jump\t// in\n    tag_185:\n        /* \"#utility.yul\":4075:4078   */\n      dup5\n        /* \"#utility.yul\":4071:4110   */\n      add\n        /* \"#utility.yul\":4064:4110   */\n      swap2\n      pop\n        /* \"#utility.yul\":3844:4116   */\n      pop\n        /* \"#utility.yul\":3752:4116   */\n      swap3\n      swap2\n      pop\n      pop\n      jump\t// out\n        /* \"#utility.yul\":4122:4488   */\n    tag_187:\n        /* \"#utility.yul\":4264:4267   */\n      0x00\n        /* \"#utility.yul\":4285:4352   */\n      tag_189\n        /* \"#utility.yul\":4349:4351   */\n      0x26\n        /* \"#utility.yul\":4344:4347   */\n      dup4\n        /* \"#utility.yul\":4285:4352   */\n      tag_183\n      jump\t// in\n    tag_189:\n        /* \"#utility.yul\":4278:4352   */\n      swap2\n      pop\n        /* \"#utility.yul\":4361:4454   */\n      tag_190\n        /* \"#utility.yul\":4450:4453   */\n      dup3\n        /* \"#utility.yul\":4361:4454   */\n      tag_191\n      jump\t// in\n    tag_190:\n        /* \"#utility.yul\":4479:4481   */\n      0x40\n        /* \"#utility.yul\":4474:4477   */\n      dup3\n        /* \"#utility.yul\":4470:4482   */\n      add\n        /* \"#utility.yul\":4463:4482   */\n      swap1\n      pop\n        /* \"#utility.yul\":4122:4488   */\n      swap2\n      swap1\n      pop\n      jump\t// out\n        /* \"#utility.yul\":4494:4860   */\n    tag_192:\n        /* \"#utility.yul\":4636:4639   */\n      0x00\n        /* \"#utility.yul\":4657:4724   */\n      tag_194\n        /* \"#utility.yul\":4721:4723   */\n      0x0b\n        /* \"#utility.yul\":4716:4719   */\n      dup4\n        /* \"#utility.yul\":4657:4724   */\n      tag_183\n      jump\t// in\n    tag_194:\n        /* \"#utility.yul\":4650:4724   */\n      swap2\n      pop\n        /* \"#utility.yul\":4733:4826   */\n      tag_195\n        /* \"#utility.yul\":4822:4825   */\n      dup3\n        /* \"#utility.yul\":4733:4826   */\n      tag_196\n      jump\t// in\n    tag_195:\n        /* \"#utility.yul\":4851:4853   */\n      0x20\n        /* \"#utility.yul\":4846:4849   */\n      dup3\n        /* \"#utility.yul\":4842:4854   */\n      add\n        /* \"#utility.yul\":4835:4854   */\n      swap1\n      pop\n        /* \"#utility.yul\":4494:4860   */\n      swap2\n      swap1\n      pop\n      jump\t// out\n        /* \"#utility.yul\":4866:5232   */\n    tag_197:\n        /* \"#utility.yul\":5008:5011   */\n      0x00\n        /* \"#utility.yul\":5029:5096   */\n      tag_199\n        /* \"#utility.yul\":5093:5095   */\n      0x1d\n        /* \"#utility.yul\":5088:5091   */\n      dup4\n        /* \"#utility.yul\":5029:5096   */\n      tag_183\n      jump\t// in\n    tag_199:\n        /* \"#utility.yul\":5022:5096   */\n      swap2\n      pop\n        /* \"#utility.yul\":5105:5198   */\n      tag_200\n        /* \"#utility.yul\":5194:5197   */\n      dup3\n        /* \"#utility.yul\":5105:5198   */\n      tag_201\n      jump\t// in\n    tag_200:\n        /* \"#utility.yul\":5223:5225   */\n      0x20\n        /* \"#utility.yul\":5218:5221   */\n      dup3\n        /* \"#utility.yul\":5214:5226   */\n      add\n        /* \"#utility.yul\":5207:5226   */\n      swap1\n      pop\n        /* \"#utility.yul\":4866:5232   */\n      swap2\n      swap1\n      pop\n      jump\t// out\n        /* \"#utility.yul\":5238:5604   */\n    tag_202:\n        /* \"#utility.yul\":5380:5383   */\n      0x00\n        /* \"#utility.yul\":5401:5468   */\n      tag_204\n        /* \"#utility.yul\":5465:5467   */\n      0x2a\n        /* \"#utility.yul\":5460:5463   */\n      dup4\n        /* \"#utility.yul\":5401:5468   */\n      tag_183\n      jump\t// in\n    tag_204:\n        /* \"#utility.yul\":5394:5468   */\n      swap2\n      pop\n        /* \"#utility.yul\":5477:5570   */\n      tag_205\n        /* \"#utility.yul\":5566:5569   */\n      dup3\n        /* \"#utility.yul\":5477:5570   */\n      tag_206\n      jump\t// in\n    tag_205:\n        /* \"#utility.yul\":5595:5597   */\n      0x40\n        /* \"#utility.yul\":5590:5593   */\n      dup3\n        /* \"#utility.yul\":5586:5598   */\n      add\n        /* \"#utility.yul\":5579:5598   */\n      swap1\n      pop\n        /* \"#utility.yul\":5238:5604   */\n      swap2\n      swap1\n      pop\n      jump\t// out\n        /* \"#utility.yul\":5610:5728   */\n    tag_207:\n        /* \"#utility.yul\":5697:5721   */\n      tag_209\n        /* \"#utility.yul\":5715:5720   */\n      dup2\n        /* \"#utility.yul\":5697:5721   */\n      tag_210\n      jump\t// in\n    tag_209:\n        /* \"#utility.yul\":5692:5695   */\n      dup3\n        /* \"#utility.yul\":5685:5722   */\n      mstore\n        /* \"#utility.yul\":5610:5728   */\n      pop\n      pop\n      jump\t// out\n        /* \"#utility.yul\":5734:5990   */\n    tag_35:\n        /* \"#utility.yul\":5846:5849   */\n      0x00\n        /* \"#utility.yul\":5861:5936   */\n      tag_212\n        /* \"#utility.yul\":5932:5935   */\n      dup3\n        /* \"#utility.yul\":5923:5929   */\n      dup5\n        /* \"#utility.yul\":5861:5936   */\n      tag_157\n      jump\t// in\n    tag_212:\n        /* \"#utility.yul\":5961:5963   */\n      0x14\n        /* \"#utility.yul\":5956:5959   */\n      dup3\n        /* \"#utility.yul\":5952:5964   */\n      add\n        /* \"#utility.yul\":5945:5964   */\n      swap2\n      pop\n        /* \"#utility.yul\":5981:5984   */\n      dup2\n        /* \"#utility.yul\":5974:5984   */\n      swap1\n      pop\n        /* \"#utility.yul\":5734:5990   */\n      swap3\n      swap2\n      pop\n      pop\n      jump\t// out\n        /* \"#utility.yul\":5996:6267   */\n    tag_87:\n        /* \"#utility.yul\":6126:6129   */\n      0x00\n        /* \"#utility.yul\":6148:6241   */\n      tag_214\n        /* \"#utility.yul\":6237:6240   */\n      dup3\n        /* \"#utility.yul\":6228:6234   */\n      dup5\n        /* \"#utility.yul\":6148:6241   */\n      tag_170\n      jump\t// in\n    tag_214:\n        /* \"#utility.yul\":6141:6241   */\n      swap2\n      pop\n        /* \"#utility.yul\":6258:6261   */\n      dup2\n        /* \"#utility.yul\":6251:6261   */\n      swap1\n      pop\n        /* \"#utility.yul\":5996:6267   */\n      swap3\n      swap2\n      pop\n      pop\n      jump\t// out\n        /* \"#utility.yul\":6273:6495   */\n    tag_26:\n        /* \"#utility.yul\":6366:6370   */\n      0x00\n        /* \"#utility.yul\":6404:6406   */\n      0x20\n        /* \"#utility.yul\":6393:6402   */\n      dup3\n        /* \"#utility.yul\":6389:6407   */\n      add\n        /* \"#utility.yul\":6381:6407   */\n      swap1\n      pop\n        /* \"#utility.yul\":6417:6488   */\n      tag_216\n        /* \"#utility.yul\":6485:6486   */\n      0x00\n        /* \"#utility.yul\":6474:6483   */\n      dup4\n        /* \"#utility.yul\":6470:6487   */\n      add\n        /* \"#utility.yul\":6461:6467   */\n      dup5\n        /* \"#utility.yul\":6417:6488   */\n      tag_153\n      jump\t// in\n    tag_216:\n        /* \"#utility.yul\":6273:6495   */\n      swap3\n      swap2\n      pop\n      pop\n      jump\t// out\n        /* \"#utility.yul\":6501:6833   */\n    tag_50:\n        /* \"#utility.yul\":6622:6626   */\n      0x00\n        /* \"#utility.yul\":6660:6662   */\n      0x40\n        /* \"#utility.yul\":6649:6658   */\n      dup3\n        /* \"#utility.yul\":6645:6663   */\n      add\n        /* \"#utility.yul\":6637:6663   */\n      swap1\n      pop\n        /* \"#utility.yul\":6673:6744   */\n      tag_218\n        /* \"#utility.yul\":6741:6742   */\n      0x00\n        /* \"#utility.yul\":6730:6739   */\n      dup4\n        /* \"#utility.yul\":6726:6743   */\n      add\n        /* \"#utility.yul\":6717:6723   */\n      dup6\n        /* \"#utility.yul\":6673:6744   */\n      tag_153\n      jump\t// in\n    tag_218:\n        /* \"#utility.yul\":6754:6826   */\n      tag_219\n        /* \"#utility.yul\":6822:6824   */\n      0x20\n        /* \"#utility.yul\":6811:6820   */\n      dup4\n        /* \"#utility.yul\":6807:6825   */\n      add\n        /* \"#utility.yul\":6798:6804   */\n      dup5\n        /* \"#utility.yul\":6754:6826   */\n      tag_207\n      jump\t// in\n    tag_219:\n        /* \"#utility.yul\":6501:6833   */\n      swap4\n      swap3\n      pop\n      pop\n      pop\n      jump\t// out\n        /* \"#utility.yul\":6839:7049   */\n    tag_13:\n        /* \"#utility.yul\":6926:6930   */\n      0x00\n        /* \"#utility.yul\":6964:6966   */\n      0x20\n        /* \"#utility.yul\":6953:6962   */\n      dup3\n        /* \"#utility.yul\":6949:6967   */\n      add\n        /* \"#utility.yul\":6941:6967   */\n      swap1\n      pop\n        /* \"#utility.yul\":6977:7042   */\n      tag_221\n        /* \"#utility.yul\":7039:7040   */\n      0x00\n        /* \"#utility.yul\":7028:7037   */\n      dup4\n        /* \"#utility.yul\":7024:7041   */\n      add\n        /* \"#utility.yul\":7015:7021   */\n      dup5\n        /* \"#utility.yul\":6977:7042   */\n      tag_162\n      jump\t// in\n    tag_221:\n        /* \"#utility.yul\":6839:7049   */\n      swap3\n      swap2\n      pop\n      pop\n      jump\t// out\n        /* \"#utility.yul\":7055:7277   */\n    tag_30:\n        /* \"#utility.yul\":7148:7152   */\n      0x00\n        /* \"#utility.yul\":7186:7188   */\n      0x20\n        /* \"#utility.yul\":7175:7184   */\n      dup3\n        /* \"#utility.yul\":7171:7189   */\n      add\n        /* \"#utility.yul\":7163:7189   */\n      swap1\n      pop\n        /* \"#utility.yul\":7199:7270   */\n      tag_223\n        /* \"#utility.yul\":7267:7268   */\n      0x00\n        /* \"#utility.yul\":7256:7265   */\n      dup4\n        /* \"#utility.yul\":7252:7269   */\n      add\n        /* \"#utility.yul\":7243:7249   */\n      dup5\n        /* \"#utility.yul\":7199:7270   */\n      tag_166\n      jump\t// in\n    tag_223:\n        /* \"#utility.yul\":7055:7277   */\n      swap3\n      swap2\n      pop\n      pop\n      jump\t// out\n        /* \"#utility.yul\":7283:7596   */\n    tag_109:\n        /* \"#utility.yul\":7396:7400   */\n      0x00\n        /* \"#utility.yul\":7434:7436   */\n      0x20\n        /* \"#utility.yul\":7423:7432   */\n      dup3\n        /* \"#utility.yul\":7419:7437   */\n      add\n        /* \"#utility.yul\":7411:7437   */\n      swap1\n      pop\n        /* \"#utility.yul\":7483:7492   */\n      dup2\n        /* \"#utility.yul\":7477:7481   */\n      dup2\n        /* \"#utility.yul\":7473:7493   */\n      sub\n        /* \"#utility.yul\":7469:7470   */\n      0x00\n        /* \"#utility.yul\":7458:7467   */\n      dup4\n        /* \"#utility.yul\":7454:7471   */\n      add\n        /* \"#utility.yul\":7447:7494   */\n      mstore\n        /* \"#utility.yul\":7511:7589   */\n      tag_225\n        /* \"#utility.yul\":7584:7588   */\n      dup2\n        /* \"#utility.yul\":7575:7581   */\n      dup5\n        /* \"#utility.yul\":7511:7589   */\n      tag_178\n      jump\t// in\n    tag_225:\n        /* \"#utility.yul\":7503:7589   */\n      swap1\n      pop\n        /* \"#utility.yul\":7283:7596   */\n      swap3\n      swap2\n      pop\n      pop\n      jump\t// out\n        /* \"#utility.yul\":7602:8021   */\n    tag_85:\n        /* \"#utility.yul\":7768:7772   */\n      0x00\n        /* \"#utility.yul\":7806:7808   */\n      0x20\n        /* \"#utility.yul\":7795:7804   */\n      dup3\n        /* \"#utility.yul\":7791:7809   */\n      add\n        /* \"#utility.yul\":7783:7809   */\n      swap1\n      pop\n        /* \"#utility.yul\":7855:7864   */\n      dup2\n        /* \"#utility.yul\":7849:7853   */\n      dup2\n        /* \"#utility.yul\":7845:7865   */\n      sub\n        /* \"#utility.yul\":7841:7842   */\n      0x00\n        /* \"#utility.yul\":7830:7839   */\n      dup4\n        /* \"#utility.yul\":7826:7843   */\n      add\n        /* \"#utility.yul\":7819:7866   */\n      mstore\n        /* \"#utility.yul\":7883:8014   */\n      tag_227\n        /* \"#utility.yul\":8009:8013   */\n      dup2\n        /* \"#utility.yul\":7883:8014   */\n      tag_187\n      jump\t// in\n    tag_227:\n        /* \"#utility.yul\":7875:8014   */\n      swap1\n      pop\n        /* \"#utility.yul\":7602:8021   */\n      swap2\n      swap1\n      pop\n      jump\t// out\n        /* \"#utility.yul\":8027:8446   */\n    tag_41:\n        /* \"#utility.yul\":8193:8197   */\n      0x00\n        /* \"#utility.yul\":8231:8233   */\n      0x20\n        /* \"#utility.yul\":8220:8229   */\n      dup3\n        /* \"#utility.yul\":8216:8234   */\n      add\n        /* \"#utility.yul\":8208:8234   */\n      swap1\n      pop\n        /* \"#utility.yul\":8280:8289   */\n      dup2\n        /* \"#utility.yul\":8274:8278   */\n      dup2\n        /* \"#utility.yul\":8270:8290   */\n      sub\n        /* \"#utility.yul\":8266:8267   */\n      0x00\n        /* \"#utility.yul\":8255:8264   */\n      dup4\n        /* \"#utility.yul\":8251:8268   */\n      add\n        /* \"#utility.yul\":8244:8291   */\n      mstore\n        /* \"#utility.yul\":8308:8439   */\n      tag_229\n        /* \"#utility.yul\":8434:8438   */\n      dup2\n        /* \"#utility.yul\":8308:8439   */\n      tag_192\n      jump\t// in\n    tag_229:\n        /* \"#utility.yul\":8300:8439   */\n      swap1\n      pop\n        /* \"#utility.yul\":8027:8446   */\n      swap2\n      swap1\n      pop\n      jump\t// out\n        /* \"#utility.yul\":8452:8871   */\n    tag_100:\n        /* \"#utility.yul\":8618:8622   */\n      0x00\n        /* \"#utility.yul\":8656:8658   */\n      0x20\n        /* \"#utility.yul\":8645:8654   */\n      dup3\n        /* \"#utility.yul\":8641:8659   */\n      add\n        /* \"#utility.yul\":8633:8659   */\n      swap1\n      pop\n        /* \"#utility.yul\":8705:8714   */\n      dup2\n        /* \"#utility.yul\":8699:8703   */\n      dup2\n        /* \"#utility.yul\":8695:8715   */\n      sub\n        /* \"#utility.yul\":8691:8692   */\n      0x00\n        /* \"#utility.yul\":8680:8689   */\n      dup4\n        /* \"#utility.yul\":8676:8693   */\n      add\n        /* \"#utility.yul\":8669:8716   */\n      mstore\n        /* \"#utility.yul\":8733:8864   */\n      tag_231\n        /* \"#utility.yul\":8859:8863   */\n      dup2\n        /* \"#utility.yul\":8733:8864   */\n      tag_197\n      jump\t// in\n    tag_231:\n        /* \"#utility.yul\":8725:8864   */\n      swap1\n      pop\n        /* \"#utility.yul\":8452:8871   */\n      swap2\n      swap1\n      pop\n      jump\t// out\n        /* \"#utility.yul\":8877:9296   */\n    tag_71:\n        /* \"#utility.yul\":9043:9047   */\n      0x00\n        /* \"#utility.yul\":9081:9083   */\n      0x20\n        /* \"#utility.yul\":9070:9079   */\n      dup3\n        /* \"#utility.yul\":9066:9084   */\n      add\n        /* \"#utility.yul\":9058:9084   */\n      swap1\n      pop\n        /* \"#utility.yul\":9130:9139   */\n      dup2\n        /* \"#utility.yul\":9124:9128   */\n      dup2\n        /* \"#utility.yul\":9120:9140   */\n      sub\n        /* \"#utility.yul\":9116:9117   */\n      0x00\n        /* \"#utility.yul\":9105:9114   */\n      dup4\n        /* \"#utility.yul\":9101:9118   */\n      add\n        /* \"#utility.yul\":9094:9141   */\n      mstore\n        /* \"#utility.yul\":9158:9289   */\n      tag_233\n        /* \"#utility.yul\":9284:9288   */\n      dup2\n        /* \"#utility.yul\":9158:9289   */\n      tag_202\n      jump\t// in\n    tag_233:\n        /* \"#utility.yul\":9150:9289   */\n      swap1\n      pop\n        /* \"#utility.yul\":8877:9296   */\n      swap2\n      swap1\n      pop\n      jump\t// out\n        /* \"#utility.yul\":9383:9481   */\n    tag_173:\n        /* \"#utility.yul\":9434:9440   */\n      0x00\n        /* \"#utility.yul\":9468:9473   */\n      dup2\n        /* \"#utility.yul\":9462:9474   */\n      mload\n        /* \"#utility.yul\":9452:9474   */\n      swap1\n      pop\n        /* \"#utility.yul\":9383:9481   */\n      swap2\n      swap1\n      pop\n      jump\t// out\n        /* \"#utility.yul\":9487:9586   */\n    tag_181:\n        /* \"#utility.yul\":9539:9545   */\n      0x00\n        /* \"#utility.yul\":9573:9578   */\n      dup2\n        /* \"#utility.yul\":9567:9579   */\n      mload\n        /* \"#utility.yul\":9557:9579   */\n      swap1\n      pop\n        /* \"#utility.yul\":9487:9586   */\n      swap2\n      swap1\n      pop\n      jump\t// out\n        /* \"#utility.yul\":9592:9739   */\n    tag_175:\n        /* \"#utility.yul\":9693:9704   */\n      0x00\n        /* \"#utility.yul\":9730:9733   */\n      dup2\n        /* \"#utility.yul\":9715:9733   */\n      swap1\n      pop\n        /* \"#utility.yul\":9592:9739   */\n      swap3\n      swap2\n      pop\n      pop\n      jump\t// out\n        /* \"#utility.yul\":9745:9914   */\n    tag_183:\n        /* \"#utility.yul\":9829:9840   */\n      0x00\n        /* \"#utility.yul\":9863:9869   */\n      dup3\n        /* \"#utility.yul\":9858:9861   */\n      dup3\n        /* \"#utility.yul\":9851:9870   */\n      mstore\n        /* \"#utility.yul\":9903:9907   */\n      0x20\n        /* \"#utility.yul\":9898:9901   */\n      dup3\n        /* \"#utility.yul\":9894:9908   */\n      add\n        /* \"#utility.yul\":9879:9908   */\n      swap1\n      pop\n        /* \"#utility.yul\":9745:9914   */\n      swap3\n      swap2\n      pop\n      pop\n      jump\t// out\n        /* \"#utility.yul\":9920:10016   */\n    tag_156:\n        /* \"#utility.yul\":9957:9964   */\n      0x00\n        /* \"#utility.yul\":9986:10010   */\n      tag_241\n        /* \"#utility.yul\":10004:10009   */\n      dup3\n        /* \"#utility.yul\":9986:10010   */\n      tag_242\n      jump\t// in\n    tag_241:\n        /* \"#utility.yul\":9975:10010   */\n      swap1\n      pop\n        /* \"#utility.yul\":9920:10016   */\n      swap2\n      swap1\n      pop\n      jump\t// out\n        /* \"#utility.yul\":10022:10112   */\n    tag_165:\n        /* \"#utility.yul\":10056:10063   */\n      0x00\n        /* \"#utility.yul\":10099:10104   */\n      dup2\n        /* \"#utility.yul\":10092:10105   */\n      iszero\n        /* \"#utility.yul\":10085:10106   */\n      iszero\n        /* \"#utility.yul\":10074:10106   */\n      swap1\n      pop\n        /* \"#utility.yul\":10022:10112   */\n      swap2\n      swap1\n      pop\n      jump\t// out\n        /* \"#utility.yul\":10118:10195   */\n    tag_169:\n        /* \"#utility.yul\":10155:10162   */\n      0x00\n        /* \"#utility.yul\":10184:10189   */\n      dup2\n        /* \"#utility.yul\":10173:10189   */\n      swap1\n      pop\n        /* \"#utility.yul\":10118:10195   */\n      swap2\n      swap1\n      pop\n      jump\t// out\n        /* \"#utility.yul\":10201:10327   */\n    tag_242:\n        /* \"#utility.yul\":10238:10245   */\n      0x00\n        /* \"#utility.yul\":10278:10320   */\n      0xffffffffffffffffffffffffffffffffffffffff\n        /* \"#utility.yul\":10271:10276   */\n      dup3\n        /* \"#utility.yul\":10267:10321   */\n      and\n        /* \"#utility.yul\":10256:10321   */\n      swap1\n      pop\n        /* \"#utility.yul\":10201:10327   */\n      swap2\n      swap1\n      pop\n      jump\t// out\n        /* \"#utility.yul\":10333:10410   */\n    tag_210:\n        /* \"#utility.yul\":10370:10377   */\n      0x00\n        /* \"#utility.yul\":10399:10404   */\n      dup2\n        /* \"#utility.yul\":10388:10404   */\n      swap1\n      pop\n        /* \"#utility.yul\":10333:10410   */\n      swap2\n      swap1\n      pop\n      jump\t// out\n        /* \"#utility.yul\":10416:10723   */\n    tag_177:\n        /* \"#utility.yul\":10484:10485   */\n      0x00\n        /* \"#utility.yul\":10494:10607   */\n    tag_248:\n        /* \"#utility.yul\":10508:10514   */\n      dup4\n        /* \"#utility.yul\":10505:10506   */\n      dup2\n        /* \"#utility.yul\":10502:10515   */\n      lt\n        /* \"#utility.yul\":10494:10607   */\n      iszero\n      tag_250\n      jumpi\n        /* \"#utility.yul\":10593:10594   */\n      dup1\n        /* \"#utility.yul\":10588:10591   */\n      dup3\n        /* \"#utility.yul\":10584:10595   */\n      add\n        /* \"#utility.yul\":10578:10596   */\n      mload\n        /* \"#utility.yul\":10574:10575   */\n      dup2\n        /* \"#utility.yul\":10569:10572   */\n      dup5\n        /* \"#utility.yul\":10565:10576   */\n      add\n        /* \"#utility.yul\":10558:10597   */\n      mstore\n        /* \"#utility.yul\":10530:10532   */\n      0x20\n        /* \"#utility.yul\":10527:10528   */\n      dup2\n        /* \"#utility.yul\":10523:10533   */\n      add\n        /* \"#utility.yul\":10518:10533   */\n      swap1\n      pop\n        /* \"#utility.yul\":10494:10607   */\n      jump(tag_248)\n    tag_250:\n        /* \"#utility.yul\":10625:10631   */\n      dup4\n        /* \"#utility.yul\":10622:10623   */\n      dup2\n        /* \"#utility.yul\":10619:10632   */\n      gt\n        /* \"#utility.yul\":10616:10717   */\n      iszero\n      tag_251\n      jumpi\n        /* \"#utility.yul\":10705:10706   */\n      0x00\n        /* \"#utility.yul\":10696:10702   */\n      dup5\n        /* \"#utility.yul\":10691:10694   */\n      dup5\n        /* \"#utility.yul\":10687:10703   */\n      add\n        /* \"#utility.yul\":10680:10707   */\n      mstore\n        /* \"#utility.yul\":10616:10717   */\n    tag_251:\n        /* \"#utility.yul\":10465:10723   */\n      pop\n        /* \"#utility.yul\":10416:10723   */\n      pop\n      pop\n      pop\n      jump\t// out\n        /* \"#utility.yul\":10729:10962   */\n    tag_62:\n        /* \"#utility.yul\":10768:10771   */\n      0x00\n        /* \"#utility.yul\":10791:10815   */\n      tag_253\n        /* \"#utility.yul\":10809:10814   */\n      dup3\n        /* \"#utility.yul\":10791:10815   */\n      tag_210\n      jump\t// in\n    tag_253:\n        /* \"#utility.yul\":10782:10815   */\n      swap2\n      pop\n        /* \"#utility.yul\":10837:10903   */\n      0xffffffffffffffffffffffffffffffffffffffffffffffffffffffffffffffff\n        /* \"#utility.yul\":10830:10835   */\n      dup3\n        /* \"#utility.yul\":10827:10904   */\n      eq\n        /* \"#utility.yul\":10824:10927   */\n      iszero\n      tag_254\n      jumpi\n        /* \"#utility.yul\":10907:10925   */\n      tag_255\n      tag_256\n      jump\t// in\n    tag_255:\n        /* \"#utility.yul\":10824:10927   */\n    tag_254:\n        /* \"#utility.yul\":10954:10955   */\n      0x01\n        /* \"#utility.yul\":10947:10952   */\n      dup3\n        /* \"#utility.yul\":10943:10956   */\n      add\n        /* \"#utility.yul\":10936:10956   */\n      swap1\n      pop\n        /* \"#utility.yul\":10729:10962   */\n      swap2\n      swap1\n      pop\n      jump\t// out\n        /* \"#utility.yul\":10968:11068   */\n    tag_161:\n        /* \"#utility.yul\":11007:11014   */\n      0x00\n        /* \"#utility.yul\":11036:11062   */\n      tag_258\n        /* \"#utility.yul\":11056:11061   */\n      dup3\n        /* \"#utility.yul\":11036:11062   */\n      tag_259\n      jump\t// in\n    tag_258:\n        /* \"#utility.yul\":11025:11062   */\n      swap1\n      pop\n        /* \"#utility.yul\":10968:11068   */\n      swap2\n      swap1\n      pop\n      jump\t// out\n        /* \"#utility.yul\":11074:11168   */\n    tag_259:\n        /* \"#utility.yul\":11113:11120   */\n      0x00\n        /* \"#utility.yul\":11142:11162   */\n      tag_261\n        /* \"#utility.yul\":11156:11161   */\n      dup3\n        /* \"#utility.yul\":11142:11162   */\n      tag_262\n      jump\t// in\n    tag_261:\n        /* \"#utility.yul\":11131:11162   */\n      swap1\n      pop\n        /* \"#utility.yul\":11074:11168   */\n      swap2\n      swap1\n      pop\n      jump\t// out\n        /* \"#utility.yul\":11174:11354   */\n    tag_256:\n        /* \"#utility.yul\":11222:11299   */\n      0x4e487b7100000000000000000000000000000000000000000000000000000000\n        /* \"#utility.yul\":11219:11220   */\n      0x00\n        /* \"#utility.yul\":11212:11300   */\n      mstore\n        /* \"#utility.yul\":11319:11323   */\n      0x11\n        /* \"#utility.yul\":11316:11317   */\n      0x04\n        /* \"#utility.yul\":11309:11324   */\n      mstore\n        /* \"#utility.yul\":11343:11347   */\n      0x24\n        /* \"#utility.yul\":11340:11341   */\n      0x00\n        /* \"#utility.yul\":11333:11348   */\n      revert\n        /* \"#utility.yul\":11360:11540   */\n    tag_59:\n        /* \"#utility.yul\":11408:11485   */\n      0x4e487b7100000000000000000000000000000000000000000000000000000000\n        /* \"#utility.yul\":11405:11406   */\n      0x00\n        /* \"#utility.yul\":11398:11486   */\n      mstore\n        /* \"#utility.yul\":11505:11509   */\n      0x32\n        /* \"#utility.yul\":11502:11503   */\n      0x04\n        /* \"#utility.yul\":11495:11510   */\n      mstore\n        /* \"#utility.yul\":11529:11533   */\n      0x24\n        /* \"#utility.yul\":11526:11527   */\n      0x00\n        /* \"#utility.yul\":11519:11534   */\n      revert\n        /* \"#utility.yul\":11546:11663   */\n    tag_122:\n        /* \"#utility.yul\":11655:11656   */\n      0x00\n        /* \"#utility.yul\":11652:11653   */\n      dup1\n        /* \"#utility.yul\":11645:11657   */\n      revert\n        /* \"#utility.yul\":11669:11786   */\n    tag_119:\n        /* \"#utility.yul\":11778:11779   */\n      0x00\n        /* \"#utility.yul\":11775:11776   */\n      dup1\n        /* \"#utility.yul\":11768:11780   */\n      revert\n        /* \"#utility.yul\":11792:11909   */\n    tag_125:\n        /* \"#utility.yul\":11901:11902   */\n      0x00\n        /* \"#utility.yul\":11898:11899   */\n      dup1\n        /* \"#utility.yul\":11891:11903   */\n      revert\n        /* \"#utility.yul\":11915:12032   */\n    tag_141:\n        /* \"#utility.yul\":12024:12025   */\n      0x00\n        /* \"#utility.yul\":12021:12022   */\n      dup1\n        /* \"#utility.yul\":12014:12026   */\n      revert\n        /* \"#utility.yul\":12038:12155   */\n    tag_133:\n        /* \"#utility.yul\":12147:12148   */\n      0x00\n        /* \"#utility.yul\":12144:12145   */\n      dup1\n        /* \"#utility.yul\":12137:12149   */\n      revert\n        /* \"#utility.yul\":12161:12263   */\n    tag_186:\n        /* \"#utility.yul\":12202:12208   */\n      0x00\n        /* \"#utility.yul\":12253:12255   */\n      0x1f\n        /* \"#utility.yul\":12249:12256   */\n      not\n        /* \"#utility.yul\":12244:12246   */\n      0x1f\n        /* \"#utility.yul\":12237:12242   */\n      dup4\n        /* \"#utility.yul\":12233:12247   */\n      add\n        /* \"#utility.yul\":12229:12257   */\n      and\n        /* \"#utility.yul\":12219:12257   */\n      swap1\n      pop\n        /* \"#utility.yul\":12161:12263   */\n      swap2\n      swap1\n      pop\n      jump\t// out\n        /* \"#utility.yul\":12269:12363   */\n    tag_262:\n        /* \"#utility.yul\":12302:12310   */\n      0x00\n        /* \"#utility.yul\":12350:12355   */\n      dup2\n        /* \"#utility.yul\":12346:12348   */\n      0x60\n        /* \"#utility.yul\":12342:12356   */\n      shl\n        /* \"#utility.yul\":12321:12356   */\n      swap1\n      pop\n        /* \"#utility.yul\":12269:12363   */\n      swap2\n      swap1\n      pop\n      jump\t// out\n        /* \"#utility.yul\":12369:12594   */\n    tag_191:\n        /* \"#utility.yul\":12509:12543   */\n      0x416464726573733a20696e73756666696369656e742062616c616e636520666f\n        /* \"#utility.yul\":12505:12506   */\n      0x00\n        /* \"#utility.yul\":12497:12503   */\n      dup3\n        /* \"#utility.yul\":12493:12507   */\n      add\n        /* \"#utility.yul\":12486:12544   */\n      mstore\n        /* \"#utility.yul\":12578:12586   */\n      0x722063616c6c0000000000000000000000000000000000000000000000000000\n        /* \"#utility.yul\":12573:12575   */\n      0x20\n        /* \"#utility.yul\":12565:12571   */\n      dup3\n        /* \"#utility.yul\":12561:12576   */\n      add\n        /* \"#utility.yul\":12554:12587   */\n      mstore\n        /* \"#utility.yul\":12369:12594   */\n      pop\n      jump\t// out\n        /* \"#utility.yul\":12600:12761   */\n    tag_196:\n        /* \"#utility.yul\":12740:12753   */\n      0x636c61696d206572726f72000000000000000000000000000000000000000000\n        /* \"#utility.yul\":12736:12737   */\n      0x00\n        /* \"#utility.yul\":12728:12734   */\n      dup3\n        /* \"#utility.yul\":12724:12738   */\n      add\n        /* \"#utility.yul\":12717:12754   */\n      mstore\n        /* \"#utility.yul\":12600:12761   */\n      pop\n      jump\t// out\n        /* \"#utility.yul\":12767:12946   */\n    tag_201:\n        /* \"#utility.yul\":12907:12938   */\n      0x416464726573733a2063616c6c20746f206e6f6e2d636f6e7472616374000000\n        /* \"#utility.yul\":12903:12904   */\n      0x00\n        /* \"#utility.yul\":12895:12901   */\n      dup3\n        /* \"#utility.yul\":12891:12905   */\n      add\n        /* \"#utility.yul\":12884:12939   */\n      mstore\n        /* \"#utility.yul\":12767:12946   */\n      pop\n      jump\t// out\n        /* \"#utility.yul\":12952:13181   */\n    tag_206:\n        /* \"#utility.yul\":13092:13126   */\n      0x5361666545524332303a204552433230206f7065726174696f6e20646964206e\n        /* \"#utility.yul\":13088:13089   */\n      0x00\n        /* \"#utility.yul\":13080:13086   */\n      dup3\n        /* \"#utility.yul\":13076:13090   */\n      add\n        /* \"#utility.yul\":13069:13127   */\n      mstore\n        /* \"#utility.yul\":13161:13173   */\n      0x6f74207375636365656400000000000000000000000000000000000000000000\n        /* \"#utility.yul\":13156:13158   */\n      0x20\n        /* \"#utility.yul\":13148:13154   */\n      dup3\n        /* \"#utility.yul\":13144:13159   */\n      add\n        /* \"#utility.yul\":13137:13174   */\n      mstore\n        /* \"#utility.yul\":12952:13181   */\n      pop\n      jump\t// out\n        /* \"#utility.yul\":13187:13309   */\n    tag_114:\n        /* \"#utility.yul\":13260:13284   */\n      tag_277\n        /* \"#utility.yul\":13278:13283   */\n      dup2\n        /* \"#utility.yul\":13260:13284   */\n      tag_156\n      jump\t// in\n    tag_277:\n        /* \"#utility.yul\":13253:13258   */\n      dup2\n        /* \"#utility.yul\":13250:13285   */\n      eq\n        /* \"#utility.yul\":13240:13303   */\n      tag_278\n      jumpi\n        /* \"#utility.yul\":13299:13300   */\n      0x00\n        /* \"#utility.yul\":13296:13297   */\n      dup1\n        /* \"#utility.yul\":13289:13301   */\n      revert\n        /* \"#utility.yul\":13240:13303   */\n    tag_278:\n        /* \"#utility.yul\":13187:13309   */\n      pop\n      jump\t// out\n        /* \"#utility.yul\":13315:13431   */\n    tag_129:\n        /* \"#utility.yul\":13385:13406   */\n      tag_280\n        /* \"#utility.yul\":13400:13405   */\n      dup2\n        /* \"#utility.yul\":13385:13406   */\n      tag_165\n      jump\t// in\n    tag_280:\n        /* \"#utility.yul\":13378:13383   */\n      dup2\n        /* \"#utility.yul\":13375:13407   */\n      eq\n        /* \"#utility.yul\":13365:13425   */\n      tag_281\n      jumpi\n        /* \"#utility.yul\":13421:13422   */\n      0x00\n        /* \"#utility.yul\":13418:13419   */\n      dup1\n        /* \"#utility.yul\":13411:13423   */\n      revert\n        /* \"#utility.yul\":13365:13425   */\n    tag_281:\n        /* \"#utility.yul\":13315:13431   */\n      pop\n      jump\t// out\n\n    auxdata: 0xa2646970667358221220cefba55a316c0d0a48d02f6406d0ef78c65609a32f84589a3d86952f407ce89464736f6c63430008070033\n}\n",
				"bytecode": {
					"linkReferences": {},
					"object": "60c06040523480156200001157600080fd5b506040516200103f3803806200103f8339818101604052810190620000379190620000ac565b8173ffffffffffffffffffffffffffffffffffffffff1660a08173ffffffffffffffffffffffffffffffffffffffff1660601b81525050806080818152505050506200016a565b6000815190506200008f8162000136565b92915050565b600081519050620000a68162000150565b92915050565b60008060408385031215620000c657620000c562000131565b5b6000620000d6858286016200007e565b9250506020620000e98582860162000095565b9150509250929050565b6000620001008262000111565b9050919050565b6000819050919050565b600073ffffffffffffffffffffffffffffffffffffffff82169050919050565b600080fd5b6200014181620000f3565b81146200014d57600080fd5b50565b6200015b8162000107565b81146200016757600080fd5b50565b60805160a05160601c610e9e620001a1600039600081816102b601526103630152600081816101b101526103870152610e9e6000f3fe608060405234801561001057600080fd5b50600436106100575760003560e01c806318894daf1461005c578063b391c5081461008c578063c884ef83146100a8578063fc0c546a146100d8578063fd54b228146100f6575b600080fd5b61007660048036038101906100719190610820565b610114565b6040516100839190610ab9565b60405180910390f35b6100a660048036038101906100a19190610880565b610206565b005b6100c260048036038101906100bd91906107f3565b610341565b6040516100cf9190610ab9565b60405180910390f35b6100e0610361565b6040516100ed9190610a75565b60405180910390f35b6100fe610385565b60405161010b9190610ad4565b60405180910390f35b60008060008573ffffffffffffffffffffffffffffffffffffffff1673ffffffffffffffffffffffffffffffffffffffff16815260200190815260200160002060009054906101000a900460ff161580156101fd57506101fc838380806020026020016040519081016040528093929190818152602001838360200280828437600081840152601f19601f820116905080830192505050505050507f0000000000000000000000000000000000000000000000000000000000000000866040516020016101e19190610a43565b604051602081830303815290604052805190602001206103a9565b5b90509392505050565b610211338383610114565b610250576040517f08c379a000000000000000000000000000000000000000000000000000000000815260040161024790610b31565b60405180910390fd5b60016000803373ffffffffffffffffffffffffffffffffffffffff1673ffffffffffffffffffffffffffffffffffffffff16815260200190815260200160002060006101000a81548160ff0219169083151502179055506102fa33670de0b6b3a76400007f000000000000000000000000000000000000000000000000000000000000000073ffffffffffffffffffffffffffffffffffffffff166103c09092919063ffffffff16565b3373ffffffffffffffffffffffffffffffffffffffff167f0c7ef932d3b91976772937f18d5ef9b39a9930bef486b576c374f047c4b512dc60405160405180910390a25050565b60006020528060005260406000206000915054906101000a900460ff1681565b7f000000000000000000000000000000000000000000000000000000000000000081565b7f000000000000000000000000000000000000000000000000000000000000000081565b6000826103b68584610446565b1490509392505050565b6104418363a9059cbb60e01b84846040516024016103df929190610a90565b604051602081830303815290604052907bffffffffffffffffffffffffffffffffffffffffffffffffffffffff19166020820180517bffffffffffffffffffffffffffffffffffffffffffffffffffffffff838183161783525050505061049c565b505050565b60008082905060005b84518110156104915761047c8286838151811061046f5761046e610ce4565b5b6020026020010151610563565b9150808061048990610c48565b91505061044f565b508091505092915050565b60006104fe826040518060400160405280602081526020017f5361666545524332303a206c6f772d6c6576656c2063616c6c206661696c65648152508573ffffffffffffffffffffffffffffffffffffffff1661058e9092919063ffffffff16565b905060008151111561055e578080602001905181019061051e91906108cd565b61055d576040517f08c379a000000000000000000000000000000000000000000000000000000000815260040161055490610b71565b60405180910390fd5b5b505050565b600081831061057b5761057682846105a6565b610586565b61058583836105a6565b5b905092915050565b606061059d84846000856105bd565b90509392505050565b600082600052816020526040600020905092915050565b606082471015610602576040517f08c379a00000000000000000000000000000000000000000000000000000000081526004016105f990610b11565b60405180910390fd5b6000808673ffffffffffffffffffffffffffffffffffffffff16858760405161062b9190610a5e565b60006040518083038185875af1925050503d8060008114610668576040519150601f19603f3d011682016040523d82523d6000602084013e61066d565b606091505b509150915061067e8783838761068a565b92505050949350505050565b606083156106ed576000835114156106e5576106a585610700565b6106e4576040517f08c379a00000000000000000000000000000000000000000000000000000000081526004016106db90610b51565b60405180910390fd5b5b8290506106f8565b6106f78383610723565b5b949350505050565b6000808273ffffffffffffffffffffffffffffffffffffffff163b119050919050565b6000825111156107365781518083602001fd5b806040517f08c379a000000000000000000000000000000000000000000000000000000000815260040161076a9190610aef565b60405180910390fd5b60008135905061078281610e3a565b92915050565b60008083601f84011261079e5761079d610d18565b5b8235905067ffffffffffffffff8111156107bb576107ba610d13565b5b6020830191508360208202830111156107d7576107d6610d1d565b5b9250929050565b6000815190506107ed81610e51565b92915050565b60006020828403121561080957610808610d27565b5b600061081784828501610773565b91505092915050565b60008060006040848603121561083957610838610d27565b5b600061084786828701610773565b935050602084013567ffffffffffffffff81111561086857610867610d22565b5b61087486828701610788565b92509250509250925092565b6000806020838503121561089757610896610d27565b5b600083013567ffffffffffffffff8111156108b5576108b4610d22565b5b6108c185828601610788565b92509250509250929050565b6000602082840312156108e3576108e2610d27565b5b60006108f1848285016107de565b91505092915050565b61090381610bc3565b82525050565b61091a61091582610bc3565b610c91565b82525050565b61092981610bd5565b82525050565b61093881610be1565b82525050565b600061094982610b91565b6109538185610ba7565b9350610963818560208601610c15565b80840191505092915050565b600061097a82610b9c565b6109848185610bb2565b9350610994818560208601610c15565b61099d81610d2c565b840191505092915050565b60006109b5602683610bb2565b91506109c082610d4a565b604082019050919050565b60006109d8600b83610bb2565b91506109e382610d99565b602082019050919050565b60006109fb601d83610bb2565b9150610a0682610dc2565b602082019050919050565b6000610a1e602a83610bb2565b9150610a2982610deb565b604082019050919050565b610a3d81610c0b565b82525050565b6000610a4f8284610909565b60148201915081905092915050565b6000610a6a828461093e565b915081905092915050565b6000602082019050610a8a60008301846108fa565b92915050565b6000604082019050610aa560008301856108fa565b610ab26020830184610a34565b9392505050565b6000602082019050610ace6000830184610920565b92915050565b6000602082019050610ae9600083018461092f565b92915050565b60006020820190508181036000830152610b09818461096f565b905092915050565b60006020820190508181036000830152610b2a816109a8565b9050919050565b60006020820190508181036000830152610b4a816109cb565b9050919050565b60006020820190508181036000830152610b6a816109ee565b9050919050565b60006020820190508181036000830152610b8a81610a11565b9050919050565b600081519050919050565b600081519050919050565b600081905092915050565b600082825260208201905092915050565b6000610bce82610beb565b9050919050565b60008115159050919050565b6000819050919050565b600073ffffffffffffffffffffffffffffffffffffffff82169050919050565b6000819050919050565b60005b83811015610c33578082015181840152602081019050610c18565b83811115610c42576000848401525b50505050565b6000610c5382610c0b565b91507fffffffffffffffffffffffffffffffffffffffffffffffffffffffffffffffff821415610c8657610c85610cb5565b5b600182019050919050565b6000610c9c82610ca3565b9050919050565b6000610cae82610d3d565b9050919050565b7f4e487b7100000000000000000000000000000000000000000000000000000000600052601160045260246000fd5b7f4e487b7100000000000000000000000000000000000000000000000000000000600052603260045260246000fd5b600080fd5b600080fd5b600080fd5b600080fd5b600080fd5b6000601f19601f8301169050919050565b60008160601b9050919050565b7f416464726573733a20696e73756666696369656e742062616c616e636520666f60008201527f722063616c6c0000000000000000000000000000000000000000000000000000602082015250565b7f636c61696d206572726f72000000000000000000000000000000000000000000600082015250565b7f416464726573733a2063616c6c20746f206e6f6e2d636f6e7472616374000000600082015250565b7f5361666545524332303a204552433230206f7065726174696f6e20646964206e60008201527f6f74207375636365656400000000000000000000000000000000000000000000602082015250565b610e4381610bc3565b8114610e4e57600080fd5b50565b610e5a81610bd5565b8114610e6557600080fd5b5056fea2646970667358221220cefba55a316c0d0a48d02f6406d0ef78c65609a32f84589a3d86952f407ce89464736f6c63430008070033",
					"opcodes": "PUSH1 0xC0 PUSH1 0x40 MSTORE CALLVALUE DUP1 ISZERO PUSH3 0x11 JUMPI PUSH1 0x0 DUP1 REVERT JUMPDEST POP PUSH1 0x40 MLOAD PUSH3 0x103F CODESIZE SUB DUP1 PUSH3 0x103F DUP4 CODECOPY DUP2 DUP2 ADD PUSH1 0x40 MSTORE DUP2 ADD SWAP1 PUSH3 0x37 SWAP2 SWAP1 PUSH3 0xAC JUMP JUMPDEST DUP2 PUSH20 0xFFFFFFFFFFFFFFFFFFFFFFFFFFFFFFFFFFFFFFFF AND PUSH1 0xA0 DUP2 PUSH20 0xFFFFFFFFFFFFFFFFFFFFFFFFFFFFFFFFFFFFFFFF AND PUSH1 0x60 SHL DUP2 MSTORE POP POP DUP1 PUSH1 0x80 DUP2 DUP2 MSTORE POP POP POP POP PUSH3 0x16A JUMP JUMPDEST PUSH1 0x0 DUP2 MLOAD SWAP1 POP PUSH3 0x8F DUP2 PUSH3 0x136 JUMP JUMPDEST SWAP3 SWAP2 POP POP JUMP JUMPDEST PUSH1 0x0 DUP2 MLOAD SWAP1 POP PUSH3 0xA6 DUP2 PUSH3 0x150 JUMP JUMPDEST SWAP3 SWAP2 POP POP JUMP JUMPDEST PUSH1 0x0 DUP1 PUSH1 0x40 DUP4 DUP6 SUB SLT ISZERO PUSH3 0xC6 JUMPI PUSH3 0xC5 PUSH3 0x131 JUMP JUMPDEST JUMPDEST PUSH1 0x0 PUSH3 0xD6 DUP6 DUP3 DUP7 ADD PUSH3 0x7E JUMP JUMPDEST SWAP3 POP POP PUSH1 0x20 PUSH3 0xE9 DUP6 DUP3 DUP7 ADD PUSH3 0x95 JUMP JUMPDEST SWAP2 POP POP SWAP3 POP SWAP3 SWAP1 POP JUMP JUMPDEST PUSH1 0x0 PUSH3 0x100 DUP3 PUSH3 0x111 JUMP JUMPDEST SWAP1 POP SWAP2 SWAP1 POP JUMP JUMPDEST PUSH1 0x0 DUP2 SWAP1 POP SWAP2 SWAP1 POP JUMP JUMPDEST PUSH1 0x0 PUSH20 0xFFFFFFFFFFFFFFFFFFFFFFFFFFFFFFFFFFFFFFFF DUP3 AND SWAP1 POP SWAP2 SWAP1 POP JUMP JUMPDEST PUSH1 0x0 DUP1 REVERT JUMPDEST PUSH3 0x141 DUP2 PUSH3 0xF3 JUMP JUMPDEST DUP2 EQ PUSH3 0x14D JUMPI PUSH1 0x0 DUP1 REVERT JUMPDEST POP JUMP JUMPDEST PUSH3 0x15B DUP2 PUSH3 0x107 JUMP JUMPDEST DUP2 EQ PUSH3 0x167 JUMPI PUSH1 0x0 DUP1 REVERT JUMPDEST POP JUMP JUMPDEST PUSH1 0x80 MLOAD PUSH1 0xA0 MLOAD PUSH1 0x60 SHR PUSH2 0xE9E PUSH3 0x1A1 PUSH1 0x0 CODECOPY PUSH1 0x0 DUP2 DUP2 PUSH2 0x2B6 ADD MSTORE PUSH2 0x363 ADD MSTORE PUSH1 0x0 DUP2 DUP2 PUSH2 0x1B1 ADD MSTORE PUSH2 0x387 ADD MSTORE PUSH2 0xE9E PUSH1 0x0 RETURN INVALID PUSH1 0x80 PUSH1 0x40 MSTORE CALLVALUE DUP1 ISZERO PUSH2 0x10 JUMPI PUSH1 0x0 DUP1 REVERT JUMPDEST POP PUSH1 0x4 CALLDATASIZE LT PUSH2 0x57 JUMPI PUSH1 0x0 CALLDATALOAD PUSH1 0xE0 SHR DUP1 PUSH4 0x18894DAF EQ PUSH2 0x5C JUMPI DUP1 PUSH4 0xB391C508 EQ PUSH2 0x8C JUMPI DUP1 PUSH4 0xC884EF83 EQ PUSH2 0xA8 JUMPI DUP1 PUSH4 0xFC0C546A EQ PUSH2 0xD8 JUMPI DUP1 PUSH4 0xFD54B228 EQ PUSH2 0xF6 JUMPI JUMPDEST PUSH1 0x0 DUP1 REVERT JUMPDEST PUSH2 0x76 PUSH1 0x4 DUP1 CALLDATASIZE SUB DUP2 ADD SWAP1 PUSH2 0x71 SWAP2 SWAP1 PUSH2 0x820 JUMP JUMPDEST PUSH2 0x114 JUMP JUMPDEST PUSH1 0x40 MLOAD PUSH2 0x83 SWAP2 SWAP1 PUSH2 0xAB9 JUMP JUMPDEST PUSH1 0x40 MLOAD DUP1 SWAP2 SUB SWAP1 RETURN JUMPDEST PUSH2 0xA6 PUSH1 0x4 DUP1 CALLDATASIZE SUB DUP2 ADD SWAP1 PUSH2 0xA1 SWAP2 SWAP1 PUSH2 0x880 JUMP JUMPDEST PUSH2 0x206 JUMP JUMPDEST STOP JUMPDEST PUSH2 0xC2 PUSH1 0x4 DUP1 CALLDATASIZE SUB DUP2 ADD SWAP1 PUSH2 0xBD SWAP2 SWAP1 PUSH2 0x7F3 JUMP JUMPDEST PUSH2 0x341 JUMP JUMPDEST PUSH1 0x40 MLOAD PUSH2 0xCF SWAP2 SWAP1 PUSH2 0xAB9 JUMP JUMPDEST PUSH1 0x40 MLOAD DUP1 SWAP2 SUB SWAP1 RETURN JUMPDEST PUSH2 0xE0 PUSH2 0x361 JUMP JUMPDEST PUSH1 0x40 MLOAD PUSH2 0xED SWAP2 SWAP1 PUSH2 0xA75 JUMP JUMPDEST PUSH1 0x40 MLOAD DUP1 SWAP2 SUB SWAP1 RETURN JUMPDEST PUSH2 0xFE PUSH2 0x385 JUMP JUMPDEST PUSH1 0x40 MLOAD PUSH2 0x10B SWAP2 SWAP1 PUSH2 0xAD4 JUMP JUMPDEST PUSH1 0x40 MLOAD DUP1 SWAP2 SUB SWAP1 RETURN JUMPDEST PUSH1 0x0 DUP1 PUSH1 0x0 DUP6 PUSH20 0xFFFFFFFFFFFFFFFFFFFFFFFFFFFFFFFFFFFFFFFF AND PUSH20 0xFFFFFFFFFFFFFFFFFFFFFFFFFFFFFFFFFFFFFFFF AND DUP2 MSTORE PUSH1 0x20 ADD SWAP1 DUP2 MSTORE PUSH1 0x20 ADD PUSH1 0x0 KECCAK256 PUSH1 0x0 SWAP1 SLOAD SWAP1 PUSH2 0x100 EXP SWAP1 DIV PUSH1 0xFF AND ISZERO DUP1 ISZERO PUSH2 0x1FD JUMPI POP PUSH2 0x1FC DUP4 DUP4 DUP1 DUP1 PUSH1 0x20 MUL PUSH1 0x20 ADD PUSH1 0x40 MLOAD SWAP1 DUP2 ADD PUSH1 0x40 MSTORE DUP1 SWAP4 SWAP3 SWAP2 SWAP1 DUP2 DUP2 MSTORE PUSH1 0x20 ADD DUP4 DUP4 PUSH1 0x20 MUL DUP1 DUP3 DUP5 CALLDATACOPY PUSH1 0x0 DUP2 DUP5 ADD MSTORE PUSH1 0x1F NOT PUSH1 0x1F DUP3 ADD AND SWAP1 POP DUP1 DUP4 ADD SWAP3 POP POP POP POP POP POP POP PUSH32 0x0 DUP7 PUSH1 0x40 MLOAD PUSH1 0x20 ADD PUSH2 0x1E1 SWAP2 SWAP1 PUSH2 0xA43 JUMP JUMPDEST PUSH1 0x40 MLOAD PUSH1 0x20 DUP2 DUP4 SUB SUB DUP2 MSTORE SWAP1 PUSH1 0x40 MSTORE DUP1 MLOAD SWAP1 PUSH1 0x20 ADD KECCAK256 PUSH2 0x3A9 JUMP JUMPDEST JUMPDEST SWAP1 POP SWAP4 SWAP3 POP POP POP JUMP JUMPDEST PUSH2 0x211 CALLER DUP4 DUP4 PUSH2 0x114 JUMP JUMPDEST PUSH2 0x250 JUMPI PUSH1 0x40 MLOAD PUSH32 0x8C379A000000000000000000000000000000000000000000000000000000000 DUP2 MSTORE PUSH1 0x4 ADD PUSH2 0x247 SWAP1 PUSH2 0xB31 JUMP JUMPDEST PUSH1 0x40 MLOAD DUP1 SWAP2 SUB SWAP1 REVERT JUMPDEST PUSH1 0x1 PUSH1 0x0 DUP1 CALLER PUSH20 0xFFFFFFFFFFFFFFFFFFFFFFFFFFFFFFFFFFFFFFFF AND PUSH20 0xFFFFFFFFFFFFFFFFFFFFFFFFFFFFFFFFFFFFFFFF AND DUP2 MSTORE PUSH1 0x20 ADD SWAP1 DUP2 MSTORE PUSH1 0x20 ADD PUSH1 0x0 KECCAK256 PUSH1 0x0 PUSH2 0x100 EXP DUP2 SLOAD DUP2 PUSH1 0xFF MUL NOT AND SWAP1 DUP4 ISZERO ISZERO MUL OR SWAP1 SSTORE POP PUSH2 0x2FA CALLER PUSH8 0xDE0B6B3A7640000 PUSH32 0x0 PUSH20 0xFFFFFFFFFFFFFFFFFFFFFFFFFFFFFFFFFFFFFFFF AND PUSH2 0x3C0 SWAP1 SWAP3 SWAP2 SWAP1 PUSH4 0xFFFFFFFF AND JUMP JUMPDEST CALLER PUSH20 0xFFFFFFFFFFFFFFFFFFFFFFFFFFFFFFFFFFFFFFFF AND PUSH32 0xC7EF932D3B91976772937F18D5EF9B39A9930BEF486B576C374F047C4B512DC PUSH1 0x40 MLOAD PUSH1 0x40 MLOAD DUP1 SWAP2 SUB SWAP1 LOG2 POP POP JUMP JUMPDEST PUSH1 0x0 PUSH1 0x20 MSTORE DUP1 PUSH1 0x0 MSTORE PUSH1 0x40 PUSH1 0x0 KECCAK256 PUSH1 0x0 SWAP2 POP SLOAD SWAP1 PUSH2 0x100 EXP SWAP1 DIV PUSH1 0xFF AND DUP2 JUMP JUMPDEST PUSH32 0x0 DUP2 JUMP JUMPDEST PUSH32 0x0 DUP2 JUMP JUMPDEST PUSH1 0x0 DUP3 PUSH2 0x3B6 DUP6 DUP5 PUSH2 0x446 JUMP JUMPDEST EQ SWAP1 POP SWAP4 SWAP3 POP POP POP JUMP JUMPDEST PUSH2 0x441 DUP4 PUSH4 0xA9059CBB PUSH1 0xE0 SHL DUP5 DUP5 PUSH1 0x40 MLOAD PUSH1 0x24 ADD PUSH2 0x3DF SWAP3 SWAP2 SWAP1 PUSH2 0xA90 JUMP JUMPDEST PUSH1 0x40 MLOAD PUSH1 0x20 DUP2 DUP4 SUB SUB DUP2 MSTORE SWAP1 PUSH1 0x40 MSTORE SWAP1 PUSH28 0xFFFFFFFFFFFFFFFFFFFFFFFFFFFFFFFFFFFFFFFFFFFFFFFFFFFFFFFF NOT AND PUSH1 0x20 DUP3 ADD DUP1 MLOAD PUSH28 0xFFFFFFFFFFFFFFFFFFFFFFFFFFFFFFFFFFFFFFFFFFFFFFFFFFFFFFFF DUP4 DUP2 DUP4 AND OR DUP4 MSTORE POP POP POP POP PUSH2 0x49C JUMP JUMPDEST POP POP POP JUMP JUMPDEST PUSH1 0x0 DUP1 DUP3 SWAP1 POP PUSH1 0x0 JUMPDEST DUP5 MLOAD DUP2 LT ISZERO PUSH2 0x491 JUMPI PUSH2 0x47C DUP3 DUP7 DUP4 DUP2 MLOAD DUP2 LT PUSH2 0x46F JUMPI PUSH2 0x46E PUSH2 0xCE4 JUMP JUMPDEST JUMPDEST PUSH1 0x20 MUL PUSH1 0x20 ADD ADD MLOAD PUSH2 0x563 JUMP JUMPDEST SWAP2 POP DUP1 DUP1 PUSH2 0x489 SWAP1 PUSH2 0xC48 JUMP JUMPDEST SWAP2 POP POP PUSH2 0x44F JUMP JUMPDEST POP DUP1 SWAP2 POP POP SWAP3 SWAP2 POP POP JUMP JUMPDEST PUSH1 0x0 PUSH2 0x4FE DUP3 PUSH1 0x40 MLOAD DUP1 PUSH1 0x40 ADD PUSH1 0x40 MSTORE DUP1 PUSH1 0x20 DUP2 MSTORE PUSH1 0x20 ADD PUSH32 0x5361666545524332303A206C6F772D6C6576656C2063616C6C206661696C6564 DUP2 MSTORE POP DUP6 PUSH20 0xFFFFFFFFFFFFFFFFFFFFFFFFFFFFFFFFFFFFFFFF AND PUSH2 0x58E SWAP1 SWAP3 SWAP2 SWAP1 PUSH4 0xFFFFFFFF AND JUMP JUMPDEST SWAP1 POP PUSH1 0x0 DUP2 MLOAD GT ISZERO PUSH2 0x55E JUMPI DUP1 DUP1 PUSH1 0x20 ADD SWAP1 MLOAD DUP2 ADD SWAP1 PUSH2 0x51E SWAP2 SWAP1 PUSH2 0x8CD JUMP JUMPDEST PUSH2 0x55D JUMPI PUSH1 0x40 MLOAD PUSH32 0x8C379A000000000000000000000000000000000000000000000000000000000 DUP2 MSTORE PUSH1 0x4 ADD PUSH2 0x554 SWAP1 PUSH2 0xB71 JUMP JUMPDEST PUSH1 0x40 MLOAD DUP1 SWAP2 SUB SWAP1 REVERT JUMPDEST JUMPDEST POP POP POP JUMP JUMPDEST PUSH1 0x0 DUP2 DUP4 LT PUSH2 0x57B JUMPI PUSH2 0x576 DUP3 DUP5 PUSH2 0x5A6 JUMP JUMPDEST PUSH2 0x586 JUMP JUMPDEST PUSH2 0x585 DUP4 DUP4 PUSH2 0x5A6 JUMP JUMPDEST JUMPDEST SWAP1 POP SWAP3 SWAP2 POP POP JUMP JUMPDEST PUSH1 0x60 PUSH2 0x59D DUP5 DUP5 PUSH1 0x0 DUP6 PUSH2 0x5BD JUMP JUMPDEST SWAP1 POP SWAP4 SWAP3 POP POP POP JUMP JUMPDEST PUSH1 0x0 DUP3 PUSH1 0x0 MSTORE DUP2 PUSH1 0x20 MSTORE PUSH1 0x40 PUSH1 0x0 KECCAK256 SWAP1 POP SWAP3 SWAP2 POP POP JUMP JUMPDEST PUSH1 0x60 DUP3 SELFBALANCE LT ISZERO PUSH2 0x602 JUMPI PUSH1 0x40 MLOAD PUSH32 0x8C379A000000000000000000000000000000000000000000000000000000000 DUP2 MSTORE PUSH1 0x4 ADD PUSH2 0x5F9 SWAP1 PUSH2 0xB11 JUMP JUMPDEST PUSH1 0x40 MLOAD DUP1 SWAP2 SUB SWAP1 REVERT JUMPDEST PUSH1 0x0 DUP1 DUP7 PUSH20 0xFFFFFFFFFFFFFFFFFFFFFFFFFFFFFFFFFFFFFFFF AND DUP6 DUP8 PUSH1 0x40 MLOAD PUSH2 0x62B SWAP2 SWAP1 PUSH2 0xA5E JUMP JUMPDEST PUSH1 0x0 PUSH1 0x40 MLOAD DUP1 DUP4 SUB DUP2 DUP6 DUP8 GAS CALL SWAP3 POP POP POP RETURNDATASIZE DUP1 PUSH1 0x0 DUP2 EQ PUSH2 0x668 JUMPI PUSH1 0x40 MLOAD SWAP2 POP PUSH1 0x1F NOT PUSH1 0x3F RETURNDATASIZE ADD AND DUP3 ADD PUSH1 0x40 MSTORE RETURNDATASIZE DUP3 MSTORE RETURNDATASIZE PUSH1 0x0 PUSH1 0x20 DUP5 ADD RETURNDATACOPY PUSH2 0x66D JUMP JUMPDEST PUSH1 0x60 SWAP2 POP JUMPDEST POP SWAP2 POP SWAP2 POP PUSH2 0x67E DUP8 DUP4 DUP4 DUP8 PUSH2 0x68A JUMP JUMPDEST SWAP3 POP POP POP SWAP5 SWAP4 POP POP POP POP JUMP JUMPDEST PUSH1 0x60 DUP4 ISZERO PUSH2 0x6ED JUMPI PUSH1 0x0 DUP4 MLOAD EQ ISZERO PUSH2 0x6E5 JUMPI PUSH2 0x6A5 DUP6 PUSH2 0x700 JUMP JUMPDEST PUSH2 0x6E4 JUMPI PUSH1 0x40 MLOAD PUSH32 0x8C379A000000000000000000000000000000000000000000000000000000000 DUP2 MSTORE PUSH1 0x4 ADD PUSH2 0x6DB SWAP1 PUSH2 0xB51 JUMP JUMPDEST PUSH1 0x40 MLOAD DUP1 SWAP2 SUB SWAP1 REVERT JUMPDEST JUMPDEST DUP3 SWAP1 POP PUSH2 0x6F8 JUMP JUMPDEST PUSH2 0x6F7 DUP4 DUP4 PUSH2 0x723 JUMP JUMPDEST JUMPDEST SWAP5 SWAP4 POP POP POP POP JUMP JUMPDEST PUSH1 0x0 DUP1 DUP3 PUSH20 0xFFFFFFFFFFFFFFFFFFFFFFFFFFFFFFFFFFFFFFFF AND EXTCODESIZE GT SWAP1 POP SWAP2 SWAP1 POP JUMP JUMPDEST PUSH1 0x0 DUP3 MLOAD GT ISZERO PUSH2 0x736 JUMPI DUP2 MLOAD DUP1 DUP4 PUSH1 0x20 ADD REVERT JUMPDEST DUP1 PUSH1 0x40 MLOAD PUSH32 0x8C379A000000000000000000000000000000000000000000000000000000000 DUP2 MSTORE PUSH1 0x4 ADD PUSH2 0x76A SWAP2 SWAP1 PUSH2 0xAEF JUMP JUMPDEST PUSH1 0x40 MLOAD DUP1 SWAP2 SUB SWAP1 REVERT JUMPDEST PUSH1 0x0 DUP2 CALLDATALOAD SWAP1 POP PUSH2 0x782 DUP2 PUSH2 0xE3A JUMP JUMPDEST SWAP3 SWAP2 POP POP JUMP JUMPDEST PUSH1 0x0 DUP1 DUP4 PUSH1 0x1F DUP5 ADD SLT PUSH2 0x79E JUMPI PUSH2 0x79D PUSH2 0xD18 JUMP JUMPDEST JUMPDEST DUP3 CALLDATALOAD SWAP1 POP PUSH8 0xFFFFFFFFFFFFFFFF DUP2 GT ISZERO PUSH2 0x7BB JUMPI PUSH2 0x7BA PUSH2 0xD13 JUMP JUMPDEST JUMPDEST PUSH1 0x20 DUP4 ADD SWAP2 POP DUP4 PUSH1 0x20 DUP3 MUL DUP4 ADD GT ISZERO PUSH2 0x7D7 JUMPI PUSH2 0x7D6 PUSH2 0xD1D JUMP JUMPDEST JUMPDEST SWAP3 POP SWAP3 SWAP1 POP JUMP JUMPDEST PUSH1 0x0 DUP2 MLOAD SWAP1 POP PUSH2 0x7ED DUP2 PUSH2 0xE51 JUMP JUMPDEST SWAP3 SWAP2 POP POP JUMP JUMPDEST PUSH1 0x0 PUSH1 0x20 DUP3 DUP5 SUB SLT ISZERO PUSH2 0x809 JUMPI PUSH2 0x808 PUSH2 0xD27 JUMP JUMPDEST JUMPDEST PUSH1 0x0 PUSH2 0x817 DUP5 DUP3 DUP6 ADD PUSH2 0x773 JUMP JUMPDEST SWAP2 POP POP SWAP3 SWAP2 POP POP JUMP JUMPDEST PUSH1 0x0 DUP1 PUSH1 0x0 PUSH1 0x40 DUP5 DUP7 SUB SLT ISZERO PUSH2 0x839 JUMPI PUSH2 0x838 PUSH2 0xD27 JUMP JUMPDEST JUMPDEST PUSH1 0x0 PUSH2 0x847 DUP7 DUP3 DUP8 ADD PUSH2 0x773 JUMP JUMPDEST SWAP4 POP POP PUSH1 0x20 DUP5 ADD CALLDATALOAD PUSH8 0xFFFFFFFFFFFFFFFF DUP2 GT ISZERO PUSH2 0x868 JUMPI PUSH2 0x867 PUSH2 0xD22 JUMP JUMPDEST JUMPDEST PUSH2 0x874 DUP7 DUP3 DUP8 ADD PUSH2 0x788 JUMP JUMPDEST SWAP3 POP SWAP3 POP POP SWAP3 POP SWAP3 POP SWAP3 JUMP JUMPDEST PUSH1 0x0 DUP1 PUSH1 0x20 DUP4 DUP6 SUB SLT ISZERO PUSH2 0x897 JUMPI PUSH2 0x896 PUSH2 0xD27 JUMP JUMPDEST JUMPDEST PUSH1 0x0 DUP4 ADD CALLDATALOAD PUSH8 0xFFFFFFFFFFFFFFFF DUP2 GT ISZERO PUSH2 0x8B5 JUMPI PUSH2 0x8B4 PUSH2 0xD22 JUMP JUMPDEST JUMPDEST PUSH2 0x8C1 DUP6 DUP3 DUP7 ADD PUSH2 0x788 JUMP JUMPDEST SWAP3 POP SWAP3 POP POP SWAP3 POP SWAP3 SWAP1 POP JUMP JUMPDEST PUSH1 0x0 PUSH1 0x20 DUP3 DUP5 SUB SLT ISZERO PUSH2 0x8E3 JUMPI PUSH2 0x8E2 PUSH2 0xD27 JUMP JUMPDEST JUMPDEST PUSH1 0x0 PUSH2 0x8F1 DUP5 DUP3 DUP6 ADD PUSH2 0x7DE JUMP JUMPDEST SWAP2 POP POP SWAP3 SWAP2 POP POP JUMP JUMPDEST PUSH2 0x903 DUP2 PUSH2 0xBC3 JUMP JUMPDEST DUP3 MSTORE POP POP JUMP JUMPDEST PUSH2 0x91A PUSH2 0x915 DUP3 PUSH2 0xBC3 JUMP JUMPDEST PUSH2 0xC91 JUMP JUMPDEST DUP3 MSTORE POP POP JUMP JUMPDEST PUSH2 0x929 DUP2 PUSH2 0xBD5 JUMP JUMPDEST DUP3 MSTORE POP POP JUMP JUMPDEST PUSH2 0x938 DUP2 PUSH2 0xBE1 JUMP JUMPDEST DUP3 MSTORE POP POP JUMP JUMPDEST PUSH1 0x0 PUSH2 0x949 DUP3 PUSH2 0xB91 JUMP JUMPDEST PUSH2 0x953 DUP2 DUP6 PUSH2 0xBA7 JUMP JUMPDEST SWAP4 POP PUSH2 0x963 DUP2 DUP6 PUSH1 0x20 DUP7 ADD PUSH2 0xC15 JUMP JUMPDEST DUP1 DUP5 ADD SWAP2 POP POP SWAP3 SWAP2 POP POP JUMP JUMPDEST PUSH1 0x0 PUSH2 0x97A DUP3 PUSH2 0xB9C JUMP JUMPDEST PUSH2 0x984 DUP2 DUP6 PUSH2 0xBB2 JUMP JUMPDEST SWAP4 POP PUSH2 0x994 DUP2 DUP6 PUSH1 0x20 DUP7 ADD PUSH2 0xC15 JUMP JUMPDEST PUSH2 0x99D DUP2 PUSH2 0xD2C JUMP JUMPDEST DUP5 ADD SWAP2 POP POP SWAP3 SWAP2 POP POP JUMP JUMPDEST PUSH1 0x0 PUSH2 0x9B5 PUSH1 0x26 DUP4 PUSH2 0xBB2 JUMP JUMPDEST SWAP2 POP PUSH2 0x9C0 DUP3 PUSH2 0xD4A JUMP JUMPDEST PUSH1 0x40 DUP3 ADD SWAP1 POP SWAP2 SWAP1 POP JUMP JUMPDEST PUSH1 0x0 PUSH2 0x9D8 PUSH1 0xB DUP4 PUSH2 0xBB2 JUMP JUMPDEST SWAP2 POP PUSH2 0x9E3 DUP3 PUSH2 0xD99 JUMP JUMPDEST PUSH1 0x20 DUP3 ADD SWAP1 POP SWAP2 SWAP1 POP JUMP JUMPDEST PUSH1 0x0 PUSH2 0x9FB PUSH1 0x1D DUP4 PUSH2 0xBB2 JUMP JUMPDEST SWAP2 POP PUSH2 0xA06 DUP3 PUSH2 0xDC2 JUMP JUMPDEST PUSH1 0x20 DUP3 ADD SWAP1 POP SWAP2 SWAP1 POP JUMP JUMPDEST PUSH1 0x0 PUSH2 0xA1E PUSH1 0x2A DUP4 PUSH2 0xBB2 JUMP JUMPDEST SWAP2 POP PUSH2 0xA29 DUP3 PUSH2 0xDEB JUMP JUMPDEST PUSH1 0x40 DUP3 ADD SWAP1 POP SWAP2 SWAP1 POP JUMP JUMPDEST PUSH2 0xA3D DUP2 PUSH2 0xC0B JUMP JUMPDEST DUP3 MSTORE POP POP JUMP JUMPDEST PUSH1 0x0 PUSH2 0xA4F DUP3 DUP5 PUSH2 0x909 JUMP JUMPDEST PUSH1 0x14 DUP3 ADD SWAP2 POP DUP2 SWAP1 POP SWAP3 SWAP2 POP POP JUMP JUMPDEST PUSH1 0x0 PUSH2 0xA6A DUP3 DUP5 PUSH2 0x93E JUMP JUMPDEST SWAP2 POP DUP2 SWAP1 POP SWAP3 SWAP2 POP POP JUMP JUMPDEST PUSH1 0x0 PUSH1 0x20 DUP3 ADD SWAP1 POP PUSH2 0xA8A PUSH1 0x0 DUP4 ADD DUP5 PUSH2 0x8FA JUMP JUMPDEST SWAP3 SWAP2 POP POP JUMP JUMPDEST PUSH1 0x0 PUSH1 0x40 DUP3 ADD SWAP1 POP PUSH2 0xAA5 PUSH1 0x0 DUP4 ADD DUP6 PUSH2 0x8FA JUMP JUMPDEST PUSH2 0xAB2 PUSH1 0x20 DUP4 ADD DUP5 PUSH2 0xA34 JUMP JUMPDEST SWAP4 SWAP3 POP POP POP JUMP JUMPDEST PUSH1 0x0 PUSH1 0x20 DUP3 ADD SWAP1 POP PUSH2 0xACE PUSH1 0x0 DUP4 ADD DUP5 PUSH2 0x920 JUMP JUMPDEST SWAP3 SWAP2 POP POP JUMP JUMPDEST PUSH1 0x0 PUSH1 0x20 DUP3 ADD SWAP1 POP PUSH2 0xAE9 PUSH1 0x0 DUP4 ADD DUP5 PUSH2 0x92F JUMP JUMPDEST SWAP3 SWAP2 POP POP JUMP JUMPDEST PUSH1 0x0 PUSH1 0x20 DUP3 ADD SWAP1 POP DUP2 DUP2 SUB PUSH1 0x0 DUP4 ADD MSTORE PUSH2 0xB09 DUP2 DUP5 PUSH2 0x96F JUMP JUMPDEST SWAP1 POP SWAP3 SWAP2 POP POP JUMP JUMPDEST PUSH1 0x0 PUSH1 0x20 DUP3 ADD SWAP1 POP DUP2 DUP2 SUB PUSH1 0x0 DUP4 ADD MSTORE PUSH2 0xB2A DUP2 PUSH2 0x9A8 JUMP JUMPDEST SWAP1 POP SWAP2 SWAP1 POP JUMP JUMPDEST PUSH1 0x0 PUSH1 0x20 DUP3 ADD SWAP1 POP DUP2 DUP2 SUB PUSH1 0x0 DUP4 ADD MSTORE PUSH2 0xB4A DUP2 PUSH2 0x9CB JUMP JUMPDEST SWAP1 POP SWAP2 SWAP1 POP JUMP JUMPDEST PUSH1 0x0 PUSH1 0x20 DUP3 ADD SWAP1 POP DUP2 DUP2 SUB PUSH1 0x0 DUP4 ADD MSTORE PUSH2 0xB6A DUP2 PUSH2 0x9EE JUMP JUMPDEST SWAP1 POP SWAP2 SWAP1 POP JUMP JUMPDEST PUSH1 0x0 PUSH1 0x20 DUP3 ADD SWAP1 POP DUP2 DUP2 SUB PUSH1 0x0 DUP4 ADD MSTORE PUSH2 0xB8A DUP2 PUSH2 0xA11 JUMP JUMPDEST SWAP1 POP SWAP2 SWAP1 POP JUMP JUMPDEST PUSH1 0x0 DUP2 MLOAD SWAP1 POP SWAP2 SWAP1 POP JUMP JUMPDEST PUSH1 0x0 DUP2 MLOAD SWAP1 POP SWAP2 SWAP1 POP JUMP JUMPDEST PUSH1 0x0 DUP2 SWAP1 POP SWAP3 SWAP2 POP POP JUMP JUMPDEST PUSH1 0x0 DUP3 DUP3 MSTORE PUSH1 0x20 DUP3 ADD SWAP1 POP SWAP3 SWAP2 POP POP JUMP JUMPDEST PUSH1 0x0 PUSH2 0xBCE DUP3 PUSH2 0xBEB JUMP JUMPDEST SWAP1 POP SWAP2 SWAP1 POP JUMP JUMPDEST PUSH1 0x0 DUP2 ISZERO ISZERO SWAP1 POP SWAP2 SWAP1 POP JUMP JUMPDEST PUSH1 0x0 DUP2 SWAP1 POP SWAP2 SWAP1 POP JUMP JUMPDEST PUSH1 0x0 PUSH20 0xFFFFFFFFFFFFFFFFFFFFFFFFFFFFFFFFFFFFFFFF DUP3 AND SWAP1 POP SWAP2 SWAP1 POP JUMP JUMPDEST PUSH1 0x0 DUP2 SWAP1 POP SWAP2 SWAP1 POP JUMP JUMPDEST PUSH1 0x0 JUMPDEST DUP4 DUP2 LT ISZERO PUSH2 0xC33 JUMPI DUP1 DUP3 ADD MLOAD DUP2 DUP5 ADD MSTORE PUSH1 0x20 DUP2 ADD SWAP1 POP PUSH2 0xC18 JUMP JUMPDEST DUP4 DUP2 GT ISZERO PUSH2 0xC42 JUMPI PUSH1 0x0 DUP5 DUP5 ADD MSTORE JUMPDEST POP POP POP POP JUMP JUMPDEST PUSH1 0x0 PUSH2 0xC53 DUP3 PUSH2 0xC0B JUMP JUMPDEST SWAP2 POP PUSH32 0xFFFFFFFFFFFFFFFFFFFFFFFFFFFFFFFFFFFFFFFFFFFFFFFFFFFFFFFFFFFFFFFF DUP3 EQ ISZERO PUSH2 0xC86 JUMPI PUSH2 0xC85 PUSH2 0xCB5 JUMP JUMPDEST JUMPDEST PUSH1 0x1 DUP3 ADD SWAP1 POP SWAP2 SWAP1 POP JUMP JUMPDEST PUSH1 0x0 PUSH2 0xC9C DUP3 PUSH2 0xCA3 JUMP JUMPDEST SWAP1 POP SWAP2 SWAP1 POP JUMP JUMPDEST PUSH1 0x0 PUSH2 0xCAE DUP3 PUSH2 0xD3D JUMP JUMPDEST SWAP1 POP SWAP2 SWAP1 POP JUMP JUMPDEST PUSH32 0x4E487B7100000000000000000000000000000000000000000000000000000000 PUSH1 0x0 MSTORE PUSH1 0x11 PUSH1 0x4 MSTORE PUSH1 0x24 PUSH1 0x0 REVERT JUMPDEST PUSH32 0x4E487B7100000000000000000000000000000000000000000000000000000000 PUSH1 0x0 MSTORE PUSH1 0x32 PUSH1 0x4 MSTORE PUSH1 0x24 PUSH1 0x0 REVERT JUMPDEST PUSH1 0x0 DUP1 REVERT JUMPDEST PUSH1 0x0 DUP1 REVERT JUMPDEST PUSH1 0x0 DUP1 REVERT JUMPDEST PUSH1 0x0 DUP1 REVERT JUMPDEST PUSH1 0x0 DUP1 REVERT JUMPDEST PUSH1 0x0 PUSH1 0x1F NOT PUSH1 0x1F DUP4 ADD AND SWAP1 POP SWAP2 SWAP1 POP JUMP JUMPDEST PUSH1 0x0 DUP2 PUSH1 0x60 SHL SWAP1 POP SWAP2 SWAP1 POP JUMP JUMPDEST PUSH32 0x416464726573733A20696E73756666696369656E742062616C616E636520666F PUSH1 0x0 DUP3 ADD MSTORE PUSH32 0x722063616C6C0000000000000000000000000000000000000000000000000000 PUSH1 0x20 DUP3 ADD MSTORE POP JUMP JUMPDEST PUSH32 0x636C61696D206572726F72000000000000000000000000000000000000000000 PUSH1 0x0 DUP3 ADD MSTORE POP JUMP JUMPDEST PUSH32 0x416464726573733A2063616C6C20746F206E6F6E2D636F6E7472616374000000 PUSH1 0x0 DUP3 ADD MSTORE POP JUMP JUMPDEST PUSH32 0x5361666545524332303A204552433230206F7065726174696F6E20646964206E PUSH1 0x0 DUP3 ADD MSTORE PUSH32 0x6F74207375636365656400000000000000000000000000000000000000000000 PUSH1 0x20 DUP3 ADD MSTORE POP JUMP JUMPDEST PUSH2 0xE43 DUP2 PUSH2 0xBC3 JUMP JUMPDEST DUP2 EQ PUSH2 0xE4E JUMPI PUSH1 0x0 DUP1 REVERT JUMPDEST POP JUMP JUMPDEST PUSH2 0xE5A DUP2 PUSH2 0xBD5 JUMP JUMPDEST DUP2 EQ PUSH2 0xE65 JUMPI PUSH1 0x0 DUP1 REVERT JUMPDEST POP JUMP INVALID LOG2 PUSH5 0x6970667358 0x22 SLT KECCAK256 0xCE 0xFB 0xA5 GAS BALANCE PUSH13 0xD0A48D02F6406D0EF78C65609 LOG3 0x2F DUP5 PC SWAP11 RETURNDATASIZE DUP7 SWAP6 0x2F BLOCKHASH PUSH29 0xE89464736F6C6343000807003300000000000000000000000000000000 "
				},
				"gasEstimates": {
					"creation": {
						"codeDepositCost": "748400",
						"executionCost": "infinite",
						"totalCost": "infinite"
					},
					"external": {
						"canClaim(address,bytes32[])": "infinite",
						"claim(bytes32[])": "infinite",
						"claimed(address)": "2867",
						"token()": "infinite",
						"tree()": "infinite"
					}
				},
				"methodIdentifiers": {
					"canClaim(address,bytes32[])": "18894daf",
					"claim(bytes32[])": "b391c508",
					"claimed(address)": "c884ef83",
					"token()": "fc0c546a",
					"tree()": "fd54b228"
				}
			},
			"storageLayout": {
				"storage": [
					{
						"astId": 1259,
						"contract": "contracts/Airdrop_merkle.sol:Airdrop_merkle",
						"label": "claimed",
						"offset": 0,
						"slot": "0",
						"type": "t_mapping(t_address,t_bool)"
					}
				],
				"types": {
					"t_address": {
						"encoding": "inplace",
						"label": "address",
						"numberOfBytes": "20"
					},
					"t_bool": {
						"encoding": "inplace",
						"label": "bool",
						"numberOfBytes": "1"
					},
					"t_mapping(t_address,t_bool)": {
						"encoding": "mapping",
						"key": "t_address",
						"label": "mapping(address => bool)",
						"numberOfBytes": "32",
						"value": "t_bool"
					}
				}
			},
			"userdoc": {
				"kind": "user",
				"methods": {},
				"version": 1
			}
		}
	}
}